:020000040800F2
:1000000080050020250500082D0500082F050008A3
:100010003105000833050008350500080000000020
:1000200000000000000000000000000009020008BD
:100030003905000800000000AD0200080D030008AB
:100040003F0500083F0500083F0500083F05000880
:100050003F0500083F0500083F050008A50500080A
:100060003F0500083F0500083F0500083F05000860
:100070003F0500083F0500083F0500083F05000850
:100080003F0500083F0500083F0500083F05000840
:100090003F0500083F0500083F0500083F05000830
:1000A0003F0500083F0500083F0500083F05000820
:1000B00085050008510500083F0500083F050008B8
:1000C0003F0500083F0500083F0500083F05000800
:1000D0003F0500083F0500083F0500083F050008F0
:1000E0003F0500083F0500083F0500083F050008E0
:1000F0003F0500083F0500083F0500083F050008D0
:100100003F0500083F0500083F0500083F050008BF
:100110003F0500083F0500083F0500083F050008AF
:100120003F0500083F0500083F0500083F0500089F
:100130003F0500083F0500083F0500083F0500088F
:100140003F0500083F0500083F0500083F0500087F
:100150003F0500083F0500083F0500083F0500086F
:100160003F0500083F0500083F0500083F0500085F
:100170003F0500083F0500083F0500083F0500084F
:100180003F0500083F050008DFF814D003F034FEF7
:100190000021024804F006FBFEE70000AC5700080F
:1001A0008005002080F309887047684680F309883D
:1001B00004480078C00714BF0220032080F314888D
:1001C0007047000074570008DFF818C0EFF305838C
:1001D0001B0618BF6047EFF31483DB0708BF6047B7
:1001E00000DF704705490008DFF818C0EFF305830A
:1001F0001B0618BF6047EFF31483DB0708BF604797
:1002000000DF7047854B0008EFF30980816911F822
:10021000021C002933D190E80F1010B5E047BDE86B
:100220001040EFF3098C8CE807001D4B93E80600A3
:10023000914208BF704781B11EF0100F06BF2CED30
:10024000108A0120002081F820002CE9F00FC1F86D
:1002500024C00CB404F064FF0CBC1A60D2F824C0B3
:10026000BCE8F00F92F8200000281ABFBCEC108AFE
:100270006FF0120E6FF0020E8CF30988704710B504
:10028000084A1268914209D8074C54F8214090E876
:100290000F10A047EFF3098C8CE80F0010BD000091
:1002A000BC0000201C3E00081C3E000810B504F0F5
:1002B0000FFEBDE81040174B93E80600914208BFBF
:1002C0007047EFF3098C1EF0100F06BF2CED108A5B
:1002D0000120002081F820002CE9F00FC1F824C093
:1002E0000CB404F01DFF0CBC1A60D2F824C0BCE8AA
:1002F000F00F92F8200000281ABFBCEC108A6FF0B3
:10030000120E6FF0020E8CF30988704710B504F0DE
:10031000CDFFCEE7BC0000200CB50020019000907E
:100320007548006840F480307349086000BF724827
:10033000006800F4003000900198401C0190009883
:1003400018B90198B0F5A06FF1D16B48006810F4AE
:10035000003F02D00120009001E0002000900098B2
:10036000012845D164484030006840F0805062491F
:10037000403108606148006840F480405F4908608F
:100380005D48083000685C4908310860084600682C
:1003900040F4004008600846006840F4A05008603F
:1003A0005748091F0860081F006840F08070091F47
:1003B000086000BF5048006810F0007FFAD040F29B
:1003C0000560504908604C480830006820F0030080
:1003D0004949083108600846006840F0020008609A
:1003E00000BF45480830006800F00C000828F8D12C
:1003F0000CBD10B54448006840F4700042490860E4
:100400003D48006840F001003B49086000203A493F
:1004100008310860384800683C490840364908609F
:100420003B48091D0860081F006820F48020091F50
:100430000860002030490C310860FFF76DFF4FF075
:10044000006031498039086010BD70B5002000227D
:10045000022300240221284D08352D6805F00C00E8
:1004600020B1042806D0082834D107E0294D2A4EAF
:10047000356033E0294D284E35602FE01E4D2D1D8F
:100480002D68C5F380541C4D2D1D2D6805F03F01CE
:1004900054B1224DB5FBF1F5174E361D3668C6F343
:1004A000881605FB06F209E01A4DB5FBF1F5124E70
:1004B000361D3668C6F3881605FB06F20E4D2D1D57
:1004C0002D68C5F301456D1C6B00B2FBF3F5124EB0
:1004D000356003E00F4D104E356000BF00BF064D84
:1004E00008352D68C5F303150D4E705D0A4D2D6856
:1004F000C540094E356070BD0038024000700040B4
:1005000008544007003C024088ED00E0FFFFF6FE83
:10051000103000240024F4000000002000127A00B3
:10052000040000200648804706480047FEE7FEE733
:10053000FEE7FEE7FEE7FEE7FEE7FEE7FEE7FEE793
:10054000F30300088901000800BFFEE700BFFEE7D3
:1005500010B50221FE4803F098F890B10121FD4842
:10056000006804F075F90121FB48006804F070F997
:100570000121FA48006804F06BF90221F44803F005
:1005800095F810BD10B50221480703F07EF840B180
:100590000521F348006804F05BF90221480703F0E5
:1005A00085F810BD10B5022001F0BEFC50B1EDA0E1
:1005B00003F036FC0221E848006804F049F9022003
:1005C00001F0C3FC10BD10B50246002000230C69E9
:1005D000032C02D100240C6102E00C69641C0C6144
:1005E0008C69042C02DA8C69641C8C610C6941F8FA
:1005F0002420002003E051F820402344401C8C6953
:100600008442F8DC8C6993FBF4F44C6110BD00F07B
:1006100067FB00F07FFD00F0CDFD01F0F1F800F088
:100620002BFC01F0A5F901F09CFA01F0C7FA322089
:1006300004F0ACF8D1A003F0F3FB322004F0A6F8EC
:100640000021D44804F02AF9C34908600021D248A7
:1006500004F024F9D14908600021D14804F01EF9C2
:10066000BE4908600021CF4804F018F9BC49086071
:1006700003E04FF0FF3004F089F8FAE72DED0C8B22
:10068000A8B00026002400259FEDC70BB0EE408ADD
:10069000F0EE608A9FEDC40BB0EE409AF0EE609AE7
:1006A0000020159017900E90109007900990DDE0B3
:1006B0004FF0FF31012004F0E5F88DE8070018A89D
:1006C00001F017F818980A30189019981B381990EB
:1006D0001A9868301A9011A91898FFF774FF0AA9A0
:1006E0001998FFF770FF03A91A98FFF76CFF0F998D
:1006F0004943089A02FB021003F03BFA41EC100B4D
:10070000B0EE40DAF0EE60DA03F03AFDB0EE40BA57
:10071000F0EE60BA169803F02CFA41EC100BB0EE34
:1007200040CAF0EE60CA53EC1B2B51EC1C0B03F0DB
:10073000B1F941EC100BB0EE40AAF0EE60AA03F064
:10074000ABFBB0EE408AF0EE608A16994943089AF6
:1007500002FB021003F00DFA41EC100BB0EE40DA90
:10076000F0EE60DA03F00CFDB0EE40BAF0EE60BAE5
:100770000F9803F0FEF941EC100BB0EE40CAF0EE1A
:1007800060CA53EC1B2B51EC1C0B03F083F941ECBA
:10079000100BB0EE40AAF0EE60AA03F07DFBB0EEC5
:1007A000409AF0EE609A9FED820B53EC102B51ECC7
:1007B000180B03F0FDF841EC100BB0EE408AF0EEA0
:1007C000608A9FED7B0B53EC102B51EC190B03F05F
:1007D000EFF841EC100BB0EE409AF0EE609A9FED0E
:1007E000760B53EC102B51EC180B03F03AF841EC5C
:1007F000100BB0EE408AF0EE608A9FED6F0B53EC69
:10080000102B51EC190B03F02CF841EC100BB0EE4F
:10081000409AF0EE609A51EC180B03F0BBF9C4B2A9
:1008200051EC190B03F0B6F9C5B2214664A003F0F0
:10083000F7FA294665A003F0F3FA23463F22002188
:10084000084600F0EFFA06462B463F2200210846F4
:1008500000F0E8FA064600F0E6FB322003F096FFCF
:1008600000F00EFC31465CA003F0DAFA20E70EB58A
:10087000002400BF00BF3DE05B480068012805D1AF
:10088000811E042003F0FEFF8DE8070000F0E0FB6E
:100890004FF0FF31012003F0F5FF8DE8070000F075
:1008A0001FFC04461CB900F0EBFB00F001FC002328
:1008B0003F221946012000F0B5FA4C49087008465D
:1008C00001784BA003F0ACFA00233F221946012027
:1008D00000F0A8FA4C490870084601784BA003F0D4
:1008E0009FFA00F0CDFB00F0E3FB03212B480068EA
:1008F00003F0AEFFC0E792B000200F901190089077
:100900000A909AE04FF0FF31032003F0BBFF01ABE8
:1009100007C30BA935480078FFF755FE04A93A48EC
:100920000078FFF750FE3149109808703649099851
:1009300008702E48007801F02DF83348007801F057
:1009400034F82A48027837A1374803F079FA6DE085
:100950000004004034000020380000204000002047
:1009600044000020446174612072656320696E74E4
:100970006572727570742E0A00000000457665720B
:10098000797468696E6720636F6E666967757265F2
:10099000640A0000F0570008005800083C000020DE
:1009A0001058000820580008000000000000000057
:1009B00000000000DCA54C40000000000080564014
:1009C00053313A20307825580A00000053323A203B
:1009D000307825580A0000005265636569766564C1
:1009E0003A20307825580A003000002024000020EA
:1009F00052656365697665642076616C7565312042
:100A00003D20307825580A00250000205265636596
:100A1000697665642076616C756532203D2030789A
:100A200025580A0025640000D80000209E4802785E
:100A3000AFF210019D4803F003FA63E70EB50024FE
:100A400000BF81E04FF0FF31012003F01BFF8DE874
:100A5000070001F010F9964801689648006801F017
:100A600067F904467CB10A2C03D101209249086041
:100A700009E00B2C07D100208F49086004218F4822
:100A8000006803F0E5FE8C48006801285CD1012C69
:100A900005D1AA208A4908608A4908603EE0032CF3
:100AA00005D10A20864908608649086036E0052C91
:100AB00005D15A2082490860824908602EE0022C44
:100AC00009D17F480068B42828DA7D480068401DB5
:100AD0007B49086022E0082C09D179480068002889
:100AE0001CDD77480068401F7549086016E0062C39
:100AF00009D174480068B42810DA72480068401DB3
:100B0000704908600AE0042C08D16E48006800288B
:100B100004DD6C480068401F6A490860684908782D
:100B200000F038FF6749087800F03FFF6448AFF2F3
:100B30000C110268644803F083F96248AFF21C119B
:100B400002685A4803F07CF97CE70EB500240025C2
:100B500001F022F807215DA001F00FF80C2001F050
:100B600021F806215BA001F008F89CE04FF0FF316E
:100B7000052003F087FE8DE807004F48006850BB52
:100B8000564800780A2801DA01240EE0534800781C
:100B90000A2805DB51480078642801DA022404E0C1
:100BA0004E480078642800DB03243F4800780A2878
:100BB00001DA01253DE03C4800780A2805DB3A4887
:100BC0000078642801DA022533E037480078642889
:100BD0002FDB03252DE038480068012829D138484B
:100BE00000680A2801DA01240EE0354800680A2866
:100BF00005DB33480068642801DA022404E0304849
:100C00000068642800DB03242E4800680A2801DA03
:100C100001250EE02B4800680A2805DB29480068FA
:100C2000642801DA022504E026480068642800DB15
:100C30000325072000F0B6FF012C04D0022C0AD0B7
:100C4000032C0DD10BE020201F49085520211E4AFE
:100C5000601C115404E020201B49085500E000BF2F
:100C600000BF03242146184800F087FF122000F03F
:100C700099FF012D04D0022D0AD0032D0DD10BE0D8
:100C800020200A4948552021084A681C115404E0D4
:100C900020200649485500E000BF00BF0325294633
:100CA000024800F06AFF61E725000020EC00002008
:100CB0009000002094000020300000203800002028
:100CC000280000202C000020D8000020416C706813
:100CD000613A2000426574613A200000240000203F
:100CE00000B587B00121084601F0ECFB012110207E
:100CF00001F0E8FB0121080301F028FCE020059049
:100D000002208DF8180000208DF81A0002208DF8BE
:100D1000190000208DF81B0005A9324801F08CF95C
:100D2000052211462F4801F012FA052206212D480E
:100D300001F00DFA052207212A4801F008FA802067
:100D4000059001208DF8180000208DF81A0002206F
:100D50008DF8190001208DF81B0005A9224801F02B
:100D60006BF92148008B40F080001F490883002068
:100D7000ADF800004FF48270ADF802000020ADF82D
:100D80000400ADF80600ADF808004FF44070ADF86F
:100D90000A002020ADF80C000020ADF80E006946D6
:100DA000124801F0F3FC0121104801F0D0FD07B01A
:100DB00000BD01460D48818100BF0C48008910F03C
:100DC000020FFAD000BF0948008910F0010FFAD0D5
:100DD00000BF0648008910F0800FFAD103488089CF
:100DE000C0B27047000002400010024000300140D5
:100DF00030B9C649498B41F08001C44A518307E0AC
:100E0000012805D1C149098B41F08001BF4A1183F6
:100E10007047BF48006910F0200F01D001207047D3
:100E20000020FCE72DE9F04705460E461746984698
:100E30004FF000090024A2460020FFF7D9FF00BFB1
:100E4000FFF7E7FF0028FBD144EAC510C4B244EA2B
:100E50008610C4B23C432046FFF7ABFF82464046B3
:100E6000FFF7A7FF8146322003F090FC0120FFF737
:100E7000BFFF4846BDE8F08710B50C230B220021C8
:100E80000846FFF7CFFF08230C2200210846FFF792
:100E9000C9FF5D230D2200210846FFF7C3FF9323FE
:100EA0000E2200210846FFF7BDFFB1230F220021CB
:100EB0000846FFF7B7FF0E23102200210846FFF770
:100EC000B1FF3B23112200210846FFF7ABFF73233C
:100ED000122200210846FFF7A5FF4223132200211A
:100EE0000846FFF79FFFF823142200210846FFF76A
:100EF00099FF00230A2219461846FFF793FF0023A3
:100F0000152219461846FFF78DFFB623212200212E
:100F10000846FFF787FF1023222200210846FFF72B
:100F200081FF18231A4600210846FFF77BFF1D2387
:100F3000192200210846FFF775FF1C231A22002101
:100F40000846FFF76FFFC7231B2200210846FFF763
:100F500069FF40231C2200210846FFF763FFB023EE
:100F60001D2200210846FFF75DFFEA23232200210E
:100F70000846FFF757FF0A23242200210846FFF7FF
:100F800051FF0023252219461846FFF74BFF19236E
:100F9000262200210846FFF745FF59232922002178
:100FA0000846FFF73FFF88232C2200210846FFF761
:100FB00039FF31232D2200210846FFF733FF0B2391
:100FC0002E2200210846FFF72DFF072303220021D0
:100FD0000846FFF727FF2923002211461046FFF796
:100FE00021FF0623022200210846FFF71BFF0C23E6
:100FF000072200210846FFF715FF0C2308220021D5
:101000000846FFF70FFF0023092219461846FFF78D
:1010100009FF0223092200210846FFF703FF10BD44
:1010200003460020704770B5002400250020FFF71C
:10103000DFFE00BFFFF7EDFE0028FBD13524204680
:10104000FFF7B7FE05460120FFF7D2FE284670BD28
:1010500070B5002400250020FFF7CAFE00BFFFF78F
:10106000D8FE0028FBD134242046FFF7A2FE054617
:10107000322003F08BFB0120FFF7BAFE284670BD3B
:1010800070B5002400250020FFF7B2FE00BFFFF777
:10109000C0FE0028FBD136242046FFF78AFE054615
:1010A000322003F073FB0120FFF7A2FE284670BD3B
:1010B00070B5002400250020FFF79AFE00BFFFF75F
:1010C000A8FE0028FBD13A242046FFF772FE054611
:1010D000322003F05BFB0120FFF78AFE284670BD3B
:1010E00010B500240020FFF783FE00BFFFF791FE3C
:1010F0000028FBD1BB20FFF75CFE04460020FFF771
:1011000058FE0120FFF774FE204610BD001002407B
:101110000000024000B589B08CA002F081FE0121E0
:10112000022001F002FA1D208DF8200000208DF829
:10113000210001208DF822008DF8230008A800F07E
:1011400012FE8848006840088749B0FBF1F0401E55
:10115000864908804FF6FF70069008460088ADF873
:1011600014000020ADF81C00ADF8160005A9804859
:1011700001F0D3FD0020ADF800000120ADF8020021
:1011800002900020ADF80C006946794801F05AFE43
:101190000021774801F0E3FF01220221744802F0A8
:1011A0005DFA0121724801F041FE72A002F038FEA2
:1011B00009B000BD00B589B073A002F031FE012175
:1011C000084601F0B2F91C208DF8200000208DF8AF
:1011D000210001208DF822008DF8230008A800F0DE
:1011E000C2FD6048006840086D49B0FBF1F0401E48
:1011F0006C4908804FF6FF70069008460088ADF8ED
:1012000014000020ADF81C00ADF8160005A94FF041
:10121000804001F082FD0020ADF800000120ADF813
:10122000020002900020ADF80C0069464FF08040AB
:1012300001F008FE00214FF0804001F090FF0122F4
:101240000221480702F00AFA0121880701F0EEFDA9
:1012500009B000BD30B58BB004460D460121042015
:1012600001F063F90121082001F02CF94FF47040DE
:10127000099002208DF8280000208DF82A008DF8B2
:101280002B0003208DF8290009A9474800F0D4FE5F
:1012900002220C21444800F05AFF02220D2142484C
:1012A00000F055FF02220E213F4800F050FF0222BD
:1012B0000F213D4800F04BFF2A4800684008B0FB72
:1012C000F5F0401E39490880029408460088ADF8C0
:1012D00004000020ADF80C00ADF8060001A9344868
:1012E00001F01BFD6020ADF810000120ADF81200E8
:1012F00000200690ADF81C0004A92D4801F0A2FDC5
:1013000008212B4801F02BFF04A9294801F0D3FD47
:101310000821274801F02CFF04A9254801F018FEF8
:101320000821234801F031FF04A9214801F076FE8D
:1013300008211F4801F032FF01211D4801F058FD2E
:1013400001211B4801F072FD0BB030BD436F6E668A
:1013500069677572696E672054494D332E2E2E0AC7
:101360000000000000000020E7FF180048000020F7
:101370000004004054494D3320436F6E6669677521
:101380007265642E0A000000436F6E6669677572AD
:10139000696E672054494D322E2E2E0A000000003F
:1013A000FBFF04004C000020000C02404A0000201B
:1013B0000008004000BFFEE710B504464FF480501F
:1013C000E849086007E0E7490868411EE54A1160FE
:1013D00008B9FFF7EFFF0221E34801F070FB002896
:1013E000F1D02146E04801F033FB4FF48050DD4955
:1013F000086007E0DB490868411EDA4A116008B955
:10140000FFF7D8FF0121D84801F059FB0028F1D09F
:10141000D54801F01AFBC0B210BD70B505460E46A6
:101420001446012C01DD46F040060821CF4800F0AB
:1014300081FE3046FFF7C0FF05E02878FFF7BCFFCC
:10144000601E84B26D1C012CF7DA0821C74800F039
:101450006FFE70BD00B587B00121080301F076F87A
:101460000121084601F02EF80121102001F02AF890
:101470000121102001F026F80121102001F022F8AE
:1014800005221146BA4800F062FE05220621B8483E
:1014900000F05DFE05220721B54800F058FE02204D
:1014A0008DF8180000208DF81A0002208DF81B001E
:1014B0008DF819002020059005A9AD4800F0BCFD6D
:1014C0008020059005A9AA4800F0B6FD40200590AF
:1014D00005A9A74800F0B0FDA34801F031F90020AC
:1014E000ADF80000ADF80400ADF80600ADF8080056
:1014F0004FF40070ADF80A000820ADF80C00002091
:10150000ADF80E000720ADF810004FF48270ADF872
:1015100002006946944801F039F90121924801F02E
:1015200016FA0820059001208DF8180000208DF88B
:101530001A0002208DF8190005A98C4800F07CFDE6
:1015400008218A4800F0F4FD0120059000208DF864
:1015500018008DF81A0002208DF8190000208DF86F
:101560001B0005A9814800F067FD0220059005A930
:101570007E4800F061FD07B000BD38B5044600208C
:101580000090FFF767FF607821780843E17808430F
:1015900021790843A1780843009001222021684660
:1015A000FFF73BFF38BD70B506460C461546012DCA
:1015B00002DD44F0C00401E044F0800408216B48DF
:1015C00000F0B8FD2046FFF7F7FE06E00020FFF729
:1015D000F3FE3070681E85B2761C002DF6DC082103
:1015E000624800F0A5FD70BD38B5044600200090AB
:1015F000012221216846FFF7D6FF9DF8000000F088
:10160000D0000090207861780843A17808439DF8C5
:10161000001008430090012221216846FFF7FDFEDB
:1016200038BD38B5044600200090012238216846B4
:10163000FFF7B9FF207861780843A178084300904C
:10164000012238216846FFF7E8FE38BD38B5044668
:10165000012220216846FFF7A6FF9DF8000000F058
:10166000BF0000909DF8000020430090012220213F
:101670006846FFF7D2FE38BD38B504460122202166
:101680006846FFF790FF9DF8000000F07F00009093
:101690009DF8000020430090012220216846FFF7BA
:1016A000BCFE38BD38B50446012220216846FFF74C
:1016B0007AFF9DF8000000F0DF0000909DF8000028
:1016C00020430090012220216846FFF7A6FE38BD86
:1016D00008B5012221216846FFF765FF9DF800004B
:1016E00040F040000090012221216846FFF795FE5E
:1016F00008BD3EB505460024012220216846FFF7BB
:1017000052FF0622292101A8FFF74DFF9DF8000096
:1017100010F0200002D0202820D10FE000240AE0A1
:1017200001A911F8140040B200EBC000400028608D
:101730002D1D601CC4B2032CF2DB10E000240AE073
:1017400001A911F8140040B200EBC000C0002860ED
:101750002D1D601CC4B2032CF2DB00E000BF00BFF3
:101760003EBD00005000002000300140001002404B
:10177000000002400EB50121880300F0E7FE0021C1
:10178000084601F0E5F90120009000208DF80400E2
:1017900008208DF8050001208DF80600684600F04D
:1017A0005DFB06208DF8080001208DF809008DF8FA
:1017B0000A008DF80B0002A800F0D5FA0EBD0EB598
:1017C0000121042001F0C4F90220009000208DF8CE
:1017D000040008208DF8050001208DF806006846F9
:1017E00000F03CFB07208DF8080001208DF809006F
:1017F0008DF80A008DF80B0002A800F0B4FA0EBDB7
:1018000000B585B00121084600F05CFE00208DF88F
:1018100010008DF813000220039003A9134800F074
:101820000BFC0121880300F091FE0121002001F052
:101830008FF90220009000208DF8040008208DF818
:10184000050001208DF80600684600F007FB072020
:101850008DF8080001208DF809008DF80A008DF838
:101860000B0002A800F07FFA05B000BD00000240A6
:101870001149096811F0010F0ED00F49803909682C
:1018800011F0010F08D000BF4FF060410968002936
:10189000FAD04FF060421070704770B504460D46A4
:1018A0002046FFF7E5FF70BD10B504462046FFF760
:1018B000DFFF10BD00BFFEE7800E00E01CB5012178
:1018C000042000F032FE0121022000F0FBFDC020C8
:1018D000009002208DF8040000208DF80600012001
:1018E0008DF8070002208DF805006946234800F0B6
:1018F000A3FB02220621214800F029FC0222072135
:101900001E4800F024FC1CBD10B547201C4908806F
:1019100044F61F601B490880084600881A49486041
:10192000174800880880002008814880174801F087
:10193000F4F96020164908800120488040F2DC500C
:10194000886000208881114801F07CFA10490F4816
:1019500001F0B1FA01210D4801F068FA01210B48AC
:1019600001F055FE01221146084801F077FE10BD36
:1019700010B5FFF7A3FFFFF7C7FF10BD000402403B
:101980005C0000205E0000200001002000080040F4
:101990000C010020B42807DA002805DB40F24C4196
:1019A00001EBC001074A11607047B42808DA00282B
:1019B00006DB40F24C4101EBC001024A121D1160EE
:1019C00070470000340800401CB50121102000F0D1
:1019D00079FD0121022000F075FD01208DF8040041
:1019E00000208DF8060002208DF80500000200900E
:1019F0006946704800F020FB4FF480600090694613
:101A00006C4800F019FB4FF480616A4800F092FBCB
:101A10004FF4784000906946664800F00DFB4FF4A3
:101A2000E05000906946644800F006FB1CBD01468A
:101A300009B1012070470020FCE72DE9F041044680
:101A40000D4604F001063046FFF7F1FF07463A461F
:101A50004FF40061574800F06FFB6010044600F03F
:101A600001063046FFF7E3FF07463A464FF4805140
:101A7000504800F061FB6010044600F0010630465B
:101A8000FFF7D5FF07463A464FF40051494800F0AA
:101A900053FB6010044600F001063046FFF7C7FF15
:101AA00007463A464FF48041424800F045FB60103B
:101AB000044600F001063046FFF7B9FF07463A46F4
:101AC0004FF400413B4800F037FB6010044600F043
:101AD00001063046FFF7ABFF07463A464FF48061F8
:101AE000354800F029FB6010044600F0010630463E
:101AF000FFF79DFF07463A464FF400612E4800F07D
:101B00001BFB6010044600F001063046FFF78FFF14
:101B100007463A464FF48051274800F00DFB01205C
:101B200002F034FE2846FFF782FF07463A464FF49C
:101B30000071204800F000FB012002F027FE4FF466
:101B400080611C4800F0F4FA012002F01FFE4FF4FF
:101B50008061184800F0EEFA012002F017FEBDE89F
:101B6000F08110B5FFF730FF00213020FFF765FF4F
:101B700000210C20FFF761FF10BD70B504460D4633
:101B8000002606E020780121FFF757FF641C701C37
:101B9000C6B2AE42F6DB70BD10B500210120FFF7E2
:101BA0004CFF10BD10B5044644F080000021FFF743
:101BB00044FF10BD001002400004024010B5012196
:101BC000082000F07FFC01205E4908710020887128
:101BD000022048710020C8711E2008605A4800F099
:101BE0002BFA0020594908718871022048710120A0
:101BF000C871E0200860544800F01EFA10BD10B50E
:101C00000120524908710020C8714F4800F014FAB1
:101C1000E0204E4908604C4800F00EFA0020494987
:101C200008710120C871484800F006FA1E20454995
:101C30000860454800F000FA10BD10B50120414988
:101C400008710020C871404800F0F6F91E203D4997
:101C500008603D4800F0F0F900203C49087101207F
:101C6000C871394800F0E8F9E02038490860364882
:101C700000F0E2F910BD10B500242021324800F038
:101C80003DFA18B9002032490860012440212E484D
:101C900000F034FA18B901202D4908600124802190
:101CA000294800F02BFA18B90220294908600124BC
:101CB000002C35D0FFF7A3FF0221234800F01EFAC5
:101CC000012813D10421204800F018FA01280DD171
:101CD00008211D4800F012FA012807D110211A48E6
:101CE00000F00CFA10B903201A49086002211648C6
:101CF00000F004FA10B900201649086004211248C7
:101D000000F0FCF910B901201249086008210E48C2
:101D100000F0F4F910B902200E490860FFF78DFFBA
:101D20002CB901200A49086003200A49086010BD47
:101D3000024602EB4200084B03EB800050F8210002
:101D40007047000098000020000C0240A000002016
:101D500090000020940000206000002033490143DF
:101D6000334A1160704770B5002100230F22C478F8
:101D700024B32F4C246804F4E064C4F5E064C4F395
:101D80000721C1F10404E3B20A4144789C40E1B266
:101D90008478144021430C07210E264C05786155A8
:101DA000047804F01F050124AC4005786D114FF054
:101DB000E02606EB8505C5F8004109E0047804F04B
:101DC0001F040125A5401C4C0678761144F82650C6
:101DD00070BD1A4A0A400243154B1B1F1A60704718
:101DE00039B1134A121D12680243114B1B1D1A60B0
:101DF00006E00F4A121D126882430D4B1B1D1A602C
:101E00007047042808D14FF0E021096941F004012E
:101E10004FF0E022116107E04FF0E021096921F065
:101E200004014FF0E0221161704700000000FA0544
:101E30000CED00E000E400E080E100E080FFFF1F27
:101E4000002044490860091D0860091D0860091D3B
:101E5000086041483F4914310860704700213D49FE
:101E60008279002A3AD00A46126803689A430B46E0
:101E70001A600A1D126803689A430B1D1A600279E2
:101E800011440A6803681A430A60324A0832126829
:101E900003689A432F4B08331A601A1D12680368AF
:101EA0009A432C4B0C331A604279102A0ED11A1F18
:101EB000126803681A43274B08331A601A1D126808
:101EC00003681A43234B0C331A600DE02149427911
:101ED00011440A6803681A430A6005E00279114454
:101EE0000A6803689A430A60704700210160017123
:101EF0000C21417100218171704716491031096828
:101F00000143144A10321160704701460020114A03
:101F1000143212680A4201D0012000E0002070470C
:101F20000C49143108607047014600200022094B1B
:101F30001B6803EA0102074B14331B680B4202D0F3
:101F40000AB1012000E00020704702491431086006
:101F500070470000003C0140FFFF7F0010B50446C1
:101F60008C48844208D10121084600F000FB002182
:101F7000012000F0FCFA5EE08748844208D101218C
:101F8000022000F0F4FA0021022000F0F0FA52E002
:101F90008248844208D10121042000F0E8FA00219F
:101FA000042000F0E4FA46E07D48844208D1012193
:101FB000082000F0DCFA0021082000F0D8FA3AE00E
:101FC0007848844208D10121102000F0D0FA002185
:101FD000102000F0CCFA2EE07348844208D1012191
:101FE000202000F0C4FA0021202000F0C0FA22E0F6
:101FF0006E48844208D10121402000F0B8FA002147
:10200000402000F0B4FA16E06948844208D101216A
:10201000802000F0ACFA0021802000F0A8FA0AE04D
:102020006448844207D10121801500F0A0FA002104
:10203000A01500F09CFA10BDF0B50A46002100235F
:10204000002400BF3DE0012505FA01F3156805EA0B
:1020500003049C4234D105684F000326BE40B543BB
:10206000056015794E00B540066835430560157961
:10207000012D02D01579022D16D185684F00032657
:10208000BE40B543856055794E00B54086683543FE
:102090008560456801268E40B54345604568967960
:1020A0008E40B6B235434560C5684F000326BE403A
:1020B000B543C560D5794E00B540C6683543C560A7
:1020C000491C1029BFD3F0BD4FF6FF7101600021FC
:1020D000017141718171C171704708B54FF480324F
:1020E0000092009A0A430092009AC261C161009A6C
:1020F000C261C2690092C269009208BD0246002016
:1021000013690B4201D0012000E000207047014616
:10211000086980B270470246002053690B4201D023
:10212000012000E0002070470146486980B27047F6
:1021300001837047418370470AB1018300E0418306
:1021400070474161704742694A4042617047F0B54B
:10215000002300244D07ED0E02FA05F3CE1000F126
:10216000200555F826504E07F70E0F26BE40B54302
:10217000CF1000F1200646F82750CE1000F12005C0
:1021800055F8265045EA0304CE1000F1200545F825
:102190002640F0BD0000024000040240000802405A
:1021A000000C0240001002400014024000180240DF
:1021B000001C024000200240FA48006840F0010084
:1021C000F84908600020F74908310860F5480068C0
:1021D000F5490840F3490860F448091D0860081FE4
:1021E000006820F48020091F08600020ED490C31B0
:1021F000086070470021EB4A921C1170114608706C
:10220000704710B501460022002300204A11012A20
:1022100002D1E44C236808E0022A03D1E14C703477
:10222000236802E0DF4C7434236801F01F020124AC
:1022300094401C4201D0012000E0002010BD38B5C0
:10224000002000900024002500BF3120FFF7D9FFB7
:1022500005460098401C00900098B0F5A06F01D092
:10226000002DF2D03120FFF7CCFF08B1012400E0AF
:102270000024204638BD01460020CA4A106820F0DC
:10228000F80040EAC10010607047C9490860704713
:102290000021C44A703211701170012802D0042844
:1022A0000AD104E00121BF4A7032117005E0052116
:1022B000BC4A7032117000E000BF00BF7047BD49DA
:1022C0000860704770B5049C41EA82150126C6EB90
:1022D000530645EA0645054345EA0465B14E361DF9
:1022E000356070BDB24908667047820142EA0172EA
:1022F000AC4B84331A607047AD4988667047AC496F
:10230000C864704702460020A64B0833186820F0C6
:10231000EC6042EA01031843A24B0833186070478F
:10232000024600209F4B0833186820F0784042EAAC
:10233000010318439B4B0833186070470146002087
:10234000984A0832106820F0030008431060704774
:1023500094480830006800F00C00704701460020E7
:10236000904A0832106820F0F0000843106070476F
:10237000014600208B4A0832106820F4E0500843E0
:102380001060704701460020864A0832106820F429
:10239000604040EAC10010607047F0B500210022A3
:1023A00000240225002602237E4F08373F6807F0ED
:1023B0000C0121B1042905D0082937D105E07E4F51
:1023C000076036E07D4F076033E0764F3F1D3F6882
:1023D000C7F38056734F3F1D3F6807F03F036EB150
:1023E000764FB7FBF3F7DFF8BCC10CF1040CDCF857
:1023F00000C0CCF3881C07FB0CF40CE06E4FB7FB5D
:10240000F3F7DFF8A0C10CF1040CDCF800C0CCF34A
:10241000881C07FB0CF4634F3F1D3F68C7F301475F
:102420007F1C7D00B4FBF5F7076002E0624F076098
:1024300000BF00BF5B4F08373F6807F0F001090994
:102440005F4F7A5C0768D7404760564F08373F6850
:1024500007F4E051890A5A4F7A5C4768D740876091
:10246000504F08373F6807F46041490B544F7A5C7E
:102470004768D740C760F0BD002100F44072B2F554
:10248000407F0AD1474A0832116821F4F8114D4AB9
:1024900002401143434A08321160424A70321268C6
:1024A000C0F30B031A433F4B70331A607047414926
:1024B0004439086070473F494039086070474249D5
:1024C0000860704739B1374A303212680243354BE1
:1024D00030331A6006E0334A303212688243314B9F
:1024E00030331A60704739B12E4A343212680243D1
:1024F0002C4B34331A6006E02A4A34321268824385
:10250000284B34331A60704739B1264A3832126882
:102510000243244B38331A6006E0224A38321268EC
:102520008243204B38331A60704739B11D4A40321C
:10253000126802431B4B40331A6006E0194A4032CE
:1025400012688243174B40331A60704739B1154AFD
:10255000443212680243134B44331A6006E0114AB6
:102560004432126882430F4B44331A60704739B1CA
:102570000C4A1032126802430A4B10331A6006E00C
:10258000084A103212688243064B10331A607047B3
:10259000E1B1044A143212680243024B14331A6048
:1025A00019E0000000380240FFFFF6FE1030002462
:1025B00000004742800E47420024F40000127A00D7
:1025C000A8000020FFFCFF0F5C0147425B4A126835
:1025D00082435A4B1A60704739B1584A121D12682B
:1025E0000243564B1B1D1A6006E0544A121D126826
:1025F0008243524B1B1D1A60704739B14F4A0C324F
:10260000126802434D4B0C331A6006E04B4A0C3201
:1026100012688243494B0C331A60704739B1474AFC
:10262000103212680243454B10331A6006E0434AE9
:10263000103212688243414B10331A60704739B12F
:102640003E4A3C32126802433C4B3C331A6006E07F
:102650003A4A3C3212688243384B3C331A60704726
:1026600039B1364A403212680243344B40331A6063
:1026700006E0324A403212688243304B40331A60DF
:10268000704739B12D4A4432126802432B4B443310
:102690001A6006E0294A443212688243274B4433C9
:1026A0001A60704739B1254A4C3212680243234BF5
:1026B0004C331A6006E0214A4C32126882431F4BA9
:1026C0004C331A60704739B11C4A503212680243C9
:1026D0001A4B50331A6006E0184A5032126882438F
:1026E000164B50331A60704739B1144AD21F127812
:1026F0000243124BDB1F1A7006E0104AD21F1278F9
:1027000082430E4BDB1F1A7070470C486030006824
:1027100040F0807009496031086070470146002030
:10272000064A083A12680A4201D0012000E000205F
:1027300070470249891F0870704700001438024032
:1027400010B50446F648844208D101218014FFF7F1
:1027500065FF0021A014FFF761FF16E0F1488442F5
:1027600008D101210014FFF748FF00212014FFF7D2
:1027700044FF0AE0EC48844207D10121C013FFF76F
:102780003CFF0021E013FFF738FF10BD10B5002219
:10279000028802F441520B884C8823438C882343DF
:1027A000CC8823430C8923434C8923438C892343BE
:1027B000CC8923431A430280838B4FF2FF7423405A
:1027C00083830B8A038210BD2DE9F04F002502237D
:1027D0000024012700220026944690469146B0F836
:1027E0001CA04FF2400B0AEA0B0AA0F81CA04FF005
:1027F000020AA0F820A0858BD1F808A0BAF1020F38
:1028000001D100BF6AE0B1F804A0BAF1000F01D114
:10281000012700E00227DFF814A3DAF800A01AF479
:10282000000F09D0DFF804A3DAF800A02AF4000AA8
:10283000DFF8F8B2CBF800A0DFF8F0A20AF17C0ACA
:10284000DAF800A0CAF38818DFF8E0A20AF17C0ADF
:10285000DAF800A0CAF30279DFF8D0A2AAF1040ADC
:10286000DAF800A00AF03F0CDFF8C4A2BAFBFCFAC9
:102870000AFB08FABAFBF9F6B1F806A0BAF5007F30
:102880000ED14FEA162A0AEB8A0A4FEA4A0AD1F811
:1028900008B0BAFBFBFA0AF1050A1FFA8AF20FE048
:1028A0004FEA471AB6FBFAFA0AEB8A0A4FEA4A0AD3
:1028B000D1F808B0BAFBFBFA0AF1050A1FFA8AF24E
:1028C0004FF00A0AB2FBFAF202F00104A2EB040A8A
:1028D000CAF34F034FF6FF7A0AEA0424022B01DB06
:1028E000FF2B01DD02230024B1F806A04AEA040A06
:1028F0004AEA030AA0F820A0B1F804A0B1F80CB08D
:102900004AEA0B0AB1F802B04AEA0B0AB1F800B081
:102910004AEA0B0A4AF4006A4AEA05058583BDE8DB
:10292000F08F0021018041808180C180018141813F
:102930008181C1810721018270470021018041808E
:102940008180C1800221816000218181704721B195
:10295000028842F04002028004E002884FF6BF7312
:102960001A400280704721B1828B42F480628283D8
:1029700004E0828B4FF6FF331A408283704702884F
:102980004FF2FF731A40028002880A4302807047A8
:10299000B1F5804F04D1028842F48042028004E005
:1029A00002884BF6FF731A4002807047A1F57E4201
:1029B000FF3A04D0028842F48072028004E0028868
:1029C0004FF6FF631A400280704721B1828842F0BF
:1029D0000402828004E082884FF6FB731A408280F2
:1029E000704721B1828842F01002828004E0828820
:1029F0004FF6EF731A408280704730B500220023F3
:102A0000848B4FF240052C40848302240484828B03
:102A10000C88B4F5007F01D00C8814B94FF4807392
:102A200008E00C88B4F5407F03D00C88B4F5807FB3
:102A300000D100238C888D892C434D882C431C4366
:102A400044F400642243828330BD01468889704784
:102A50008181704721B1028842F40052028004E073
:102A600002884DF6FF731A4002807047018841F4D6
:102A700080510180704702460020012901D0108B4F
:102A800000E0908A70470146088A70471AB183882F
:102A90000B43838002E083888B438380704730B58B
:102AA000002400230C110125A540ABB21AB1858882
:102AB0001D43858002E085889D43858030BD0246A8
:102AC000002013890B4201D0012000E00020704754
:102AD000CA4302817047F0B502460020002400235B
:102AE000002501F00F070126BE40B4B20B110126EC
:102AF0009E40B3B2968806EA03051689264202D0A4
:102B00000DB1012000E00020F0BD10B5002201F061
:102B10000F040123A3409AB2D343038110BD0000E8
:102B20000030014000380040003C004008380240BE
:102B300000127A0010B501218803FFF76FFD002114
:102B40004FF48040FFF76AFD10BD1A4908607047D6
:102B500030B500228B071C0F0F2303FA04F2154B2C
:102B600008338C1053F824309343124C08348D10E2
:102B700044F8253023468C1053F824308C07240F5A
:102B800000FA04F423430B4C08348D1044F825302C
:102B900030BD094908607047084908607047002047
:102BA00004492031096811F4807F01D0012000E040
:102BB0000020704700380140DC0027420004274213
:102BC00010B50446FE48844208D101210846FFF7AB
:102BD00025FD00210120FFF721FD9DE0B4F1804F8C
:102BE00008D101210846FFF708FD00210120FFF769
:102BF00004FD91E0F348844208D101210220FFF74F
:102C0000FCFC00210220FFF7F8FC85E0EE4884423E
:102C100008D101210420FFF7F0FC00210420FFF778
:102C2000ECFC79E0E948844208D101210820FFF753
:102C3000E4FC00210820FFF7E0FC6DE0E44884425A
:102C400008D101211020FFF7D8FC00211020FFF748
:102C5000D4FC61E0DF48844208D101212020FFF745
:102C6000CCFC00212020FFF7C8FC55E0DA48844264
:102C700008D101210220FFF7D1FC00210220FFF73B
:102C8000CDFC49E0D548844209D101210804FFF771
:102C9000C5FC00214FF48030FFF7C0FC3CE0D04879
:102CA000844209D101214804FFF7B8FC00214FF408
:102CB0000030FFF7B3FC2FE0CA48844209D101215C
:102CC0008804FFF7ABFC00214FF48020FFF7A6FC3F
:102CD00022E0C548844208D101214020FFF78DFC45
:102CE00000214020FFF789FC16E0C048844208D14B
:102CF00001218020FFF781FC00218020FFF77DFC6F
:102D00000AE0BB48844207D101218015FFF775FC1A
:102D10000021A015FFF771FC10BD00220288A84B0E
:102D200098420ED0AC4B98420BD0B0F1804F08D0F7
:102D3000A44B984205D0A44B984202D0A34B984292
:102D400004D14FF68F731A404B881A43A04B984218
:102D500007D0A04B984204D04FF6FF431A400B898E
:102D60001A4302804B68C3620B880385944B9842D8
:102D700002D0994B984201D18B7A0386012383823A
:102D800070474FF0FF314160002101800181418097
:102D9000817270470185828270470A46002101884E
:102DA0004FF68F731940114301807047416270479D
:102DB000C16270470146486A70470146088D7047F6
:102DC00021B1028842F00202028004E002884FF63C
:102DD000FD731A400280704721B1028842F004025C
:102DE000028004E002884FF6FB731A4002807047AD
:102DF00021B1028842F08002028004E002884FF68E
:102E00007F731A400280704702884FF6F7731A40AA
:102E1000028002880A430280704702884FF6FF430F
:102E20001A40028002880A430280704721B102885A
:102E300042F00102028004E002884FF6FE731A405D
:102E40000280704770B5002400220023058C4FF6E5
:102E5000FE7635400584028C8388048B4FF68F758F
:102E60002C40B51E2C400D882C43751E2A408D89A0
:102E70002A434D882A43524DA84202D0564DA842BB
:102E800013D14FF6F7752A40CD892A434FF6FB75CB
:102E90002A408D882A434FF6FF652B404FF6FF5599
:102EA0002B400D8A2B434D8A2B43838004838D68EE
:102EB0004563028470BD70B5002400220023058C98
:102EC0004FF6EF7635400584028C8388048B48F6F4
:102ED000FF752C404FF6FF452C400D884FF6FF76CE
:102EE00006EA05252C434FF6DF752A408D8906EA50
:102EF00005152A434D8806EA05152A43304DA84298
:102F000002D0354DA8421DD14FF67F752A40CD899C
:102F10004FF6FF7606EA05152A434FF6BF752A409D
:102F20008D8806EA05152A434FF6FF352B404FF2F0
:102F3000FF752B400D8A06EA85052B434D8A06EA6C
:102F400085052B43838004838D688563028470BD6F
:102F500070B5002400220023058C4FF6FF66354033
:102F60000584028C8388848B4FF68F752C404FF636
:102F7000FC752C400D882C434FF6FF552A408D8957
:102F80004FF6FF7606EA05252A434D8806EA052511
:102F90002A430B4DA84202D00F4DA84238D14FF220
:102FA000FF752A40CD894FF6FF7606EA05252A43AC
:102FB0004FF6FF352A408D8806EA05252A4319E099
:102FC000000001400004004000080040000C0040E8
:102FD0000010004000140040000401400040014087
:102FE000004401400048014000180040001C00401F
:102FF000002000404EF6FF752B404DF6FF752B402C
:103000000D8A06EA05152B434D8A06EA05152B4362
:10301000838084838D68C563028470BD70B500228F
:1030200000230024058C4EF6FF7635400584038C82
:103030008488828B48F6FF752A404FF6FF452A4068
:103040000D884FF6FF7606EA05252A434DF6FF75F3
:103050002B408D8906EA05352B434D8806EA053558
:103060002B43FE4DA84202D0FD4DA84208D14BF69D
:10307000FF752C400D8A4FF6FF7606EA85152C4326
:10308000848082838D680564038470BD0021018083
:103090004180818081608181C1810182418270474C
:1030A00070B50346002000241846183001258D40D5
:1030B000ACB21D8CA5431D8409B108290AD100EBCF
:1030C000610005684FF68F76354005600568154349
:1030D00005600FE00D1FC5F34E052844056848F64E
:1030E000FF763540056005684FF6FF7606EA022652
:1030F0003543056070BD4163704781637047C163AC
:103100007047016470470A460021018B4FF68F73A8
:1031100019401143018370470A460021018B48F68C
:10312000FF7319404FF6FF7303EA0223194301832B
:1031300070470A460021818B4FF68F731940114367
:10314000818370470A460021818B48F6FF7319403E
:103150004FF6FF7303EA02231943818370470A463F
:103160000021018B4FF6F77319401143018370471B
:103170000A460021018B4FF2FF7319404FF6FF738F
:1031800003EA02231943018370470A460021818B19
:103190004FF6F77319401143818370470A460021A7
:1031A000818B4FF2FF7319404FF6FF7303EA02233E
:1031B0001943818370470A460021018B4FF6FB7348
:1031C00019401143018370470A460021018B4FF6D5
:1031D000FF3319404FF6FF7303EA022319430183BB
:1031E00070470A460021818B4FF6FB73194011434B
:1031F000818370470A460021818B4FF6FF331940C7
:103200004FF6FF7303EA02231943818370470A468E
:103210000021018B4FF67F731940114301837047E2
:103220000A460021018BC1F30E014FF6FF7303EA3A
:1032300002231943018370470A460021818B4FF610
:103240007F7319401143818370470A460021818BA7
:10325000C1F30E014FF6FF7303EA02231943818382
:1032600070470A460021018C4FF6FD731940114347
:10327000018470470A460021018C4FF6F77319400C
:103280001143018470470A460021018C4FF6DF7319
:1032900019404FF6FF7303EA021319430184704784
:1032A0000A460021018C4FF67F7319404FF6FF73D9
:1032B00003EA02131943018470470A460021018C76
:1032C0004FF6FF5319404FF6FF7303EA02231943E9
:1032D000018470470A460021018C4FF2FF731940A8
:1032E0004FF6FF7303EA02231943018470470A462D
:1032F0000021018C4DF6FF7319404FF6FF7303EA6E
:10330000023319430184704730B5002301248C40F7
:10331000A3B2048C9C430484048C02FA01F5ADB280
:103320002C43048430BD30B5002304248C40A3B268
:10333000048C9C430484048C02FA01F5ADB22C4346
:10334000048430BD828B4FF2FF331A408283828B1C
:103350004FF6FF7303EA01231A4382837047F0B5E7
:103360000C461546002100220026078C4EF6FF7CF5
:1033700007EA0C070784818B028C4FF6FF7707EA78
:10338000043640F6FF4739404FF6FF7707EA052736
:1033900039434FF6FF7707EA0337394345F6FF779E
:1033A0003A4046F480573A4381830284F0BD828BD1
:1033B0004FF6F3731A408283828B0A4382837047ED
:1033C000F0B50C461546002100220026078C4FF66A
:1033D000FF6C07EA0C070784818B028C4FF6FF779E
:1033E00007EA04264FF60C7739404FF6FF7707EAD5
:1033F00003172F4339434FF2FF573A4046F4807783
:103400003A4381830284F0BD028B4FF2FF331A40AE
:103410000283028B4FF6FF7303EA01231A430283F0
:103420007047F0B50C461546002100220026078C97
:103430004FF6EF7C07EA0C070784018B028C4FF6EE
:10344000FF7707EA041640F6FF4739404FF6FF774B
:1034500007EA033739434FF6FF7703E000000140E6
:103460000004014007EA052739434FF65F773A40E9
:1034700046F010073A4301830284F0BD028B4FF6F9
:10348000F3731A400283028B0A4302837047F0B53C
:103490000C46154600210022068C4FF6FE773E4072
:1034A0000684018B028C4FF60C7631407E1C06EAB6
:1034B00003162E4331434FF6F576324044F00106B1
:1034C000324301830284F0BD70B505460C46208866
:1034D00050B92389A28861882846FFF7D8FFE18880
:1034E0002846FFF7CBFF25E0208804280AD123894E
:1034F000A28861882846FFF794FFE1882846FFF7F5
:1035000083FF17E0208808280AD12389A2886188D0
:103510002846FFF755FFE1882846FFF748FF09E0F6
:103520002389A28861882846FFF719FFE188284689
:10353000FFF708FF70BD00210180418001218180DB
:103540000021C180018170472DE9F04105460C46FC
:1035500000260127608808B9022600E00026A0881E
:10356000012801D1022700E001272088A0B9238982
:10357000A28861882846FFF78AFFE1882846FFF77E
:103580007DFF23893A4631462846FFF74AFFE18806
:103590002846FFF739FF13E02389A288618828466F
:1035A000FFF73FFFE1882846FFF72EFF23893A46C1
:1035B00031462846FFF76BFFE1882846FFF75EFF9C
:1035C000BDE8F0810146486B70470146886B704743
:1035D0000146C86B70470146086C70470A884B88E3
:1035E0001A438B881A43CB881A430B891A434B8999
:1035F0001A438B891A43A0F84420704700210180A8
:1036000041808180C180018141818181704731B1D8
:10361000B0F8442042F40042A0F8442005E0B0F89D
:103620004420C2F30E02A0F84420704721B18288E2
:1036300042F00402828004E082884FF6FB731A4055
:103640008280704721B1828842F00102828004E0CA
:1036500082884FF6FE731A40828070471AB18389C0
:103660000B43838102E083898B438381704781828E
:10367000704702460020138A0B4201D0012000E06F
:1036800000207047CA430282704730B502460020CE
:1036900000230024158A05EA0103958905EA01043F
:1036A00013B10CB1012000E0002030BDCA430282FA
:1036B000704741EA0203A0F8483070471AB1838985
:1036C0000B43838102E083898B438381704721B15F
:1036D000828842F00802828004E082884FF6F77305
:1036E0001A408280704701894FF6F87211400181BB
:1036F00070470A46002101894FF68F731940114324
:103700000181704730B504460D4629462046FFF733
:10371000F0FF208940F00700208130BD2DE9F04105
:1037200004460D4616461F46602D06D13B46012233
:1037300031462046FFF775FE05E03B460122314643
:103740002046FFF7A4FE29462046FFF7D2FF208936
:1037500040F007002081BDE8F08130B50C46002123
:103760000189C9B24FF6FF7505EA032515432543C4
:103770002943018130BD2DE9F04105460E4617462B
:103780009846002443463A4631462846FFF7E5FF6F
:103790002C894FF6F870044044F007044FF68F7000
:1037A000044044F070042C81BDE8F081F0B504467B
:1037B0000D4616461F463B46324629462046FFF731
:1037C000CCFF208940F480402081F0BD82884FF6F4
:1037D0008F731A40828082880A43828070470289F0
:1037E0004FF6F8731A40028102890A43028170473A
:1037F00002894FF67F731A40028102890A430281CF
:103800007047F0B50C4615461E46002100220023E5
:103810000189028B038C4FF6F877394021434FF62C
:10382000FC473A4040F201173A434FF6DD773B4000
:103830004FF6FF7707EA06172F433B4301810283C8
:103840000384F0BD21B1828842F08002828004E0CE
:1038500082884FF67F731A4082807047A0F850101C
:1038600070472DE9FE4F804681EA0300C00F0C46E9
:10387000009021F0004123F00045B8EB0200A9417F
:1038800005D24046214690461C460B46024623F090
:103890000040104304D14046214603B0BDE8F08FFC
:1038A000270DC7F30A00C3F30A510290401A019092
:1038B000402866DAC3F3130040F4801B0098924658
:1038C00020B10023D2EB030A63EB0B0B019859469E
:1038D000C0F14002504600F0ADF906460D46504694
:1038E0005946019A00F0C5F910EB08006141002427
:1038F00087EA115284EAE7731A433BD0009A3AB33D
:10390000019A012A4FEA075210DC001B61EB020109
:103910004FF0004202EA0752CDE90042001C41F597
:10392000801132462B4600F0C3F9B6E7001B61EB6D
:103930000201001C41F5801300185B412018A2F51C
:10394000001747EB030140EAD570B6196D4111E04D
:103950006D084FEA360645EAC0754FEA0752001B6C
:1039600061EB0201001C41F5801149084FEA30006B
:103970000019514132462B4603B0BDE8F04F00F02C
:103980008AB90098012240000023D0EB020263EBC9
:10399000E073009821464FEAE074B8EB000061EB59
:1039A0000401E9E783F000435BE781F0004158E759
:1039B0002DE9FE4F81EA030404F0004421F00041A8
:1039C00000944FF0000B23F0004350EA010402D0B2
:1039D00052EA030404D10020014603B0BDE8F08F91
:1039E000C3F30A54C1F30A552C44A4F2F3340194EE
:1039F000A0FB0254C1F3130141F48011C3F313037C
:103A000043F4801301FB024400FB034E840A970A2F
:103A100044EA815447EA8357A4FB076802958D0A5C
:103A200005FB07854FEA932C04FB0C542705029DE8
:103A30004FEA065847EA1637B5EB08056EEB070C58
:103A4000870E920E47EA811742EA8312A7FB020112
:103A5000B6EB0B0164EB00042B0D43EA0C335E184C
:103A600044EB1C50DA465146E7FB0201C5F3130450
:103A70004FEA0B3343EA14534FEA0432019C43EA02
:103A80000603A4F10C040294009CCDE900B400F0FC
:103A90000FF9A2E72DE9F04D81EA030404F0004B91
:103AA00021F0004514464FF0000A23F0004150EA8F
:103AB000050220D054EA01021DD0C5F30A57024680
:103AC000C5F31303C1F31300C1F30A5640F4801584
:103AD00043F48013A7EB0608101BD64608F2FD3806
:103AE00073EB050002D308F1010801E092185B4175
:103AF000B8F1000F03DA00200146BDE8F08D002088
:103B00004FF48011064684460EE0171B73EB050741
:103B100005D3121B63EB050306434CEA010C49086D
:103B20004FEA300092185B4150EA0107EDD152EAAA
:103B3000030012D082EA040083EA0501084303D19E
:103B400000224FF0004308E0101BAB4102D20122DB
:103B5000002302E06FF0010253101AEB06004CEB59
:103B6000085110EB0A0041EB0B01BDE8F04D00F0ED
:103B700092B80EB5C10F80EAE0700844CA07002170
:103B800040F233438DE80E000A460B4600F090F8F1
:103B900003B000BD70B5C1F30A5201F00045002426
:103BA000C1F3130140F2FF3341F480119A4201DA6C
:103BB000002070BD40F233439A42A2F2334203DC4C
:103BC000524200F046F800E090402C43F1D04042D1
:103BD00070BD2DE9F05F0546002092469B46884661
:103BE0000646814640241BE0284641464746224679
:103BF00000F02FF853465A46C01A914110D311468F
:103C00001846224600F016F82D1A67EB01084F46B9
:103C100022460120002100F00DF817EB00094E416B
:103C2000201EA4F10104DFDC484631462A46434603
:103C3000BDE8F09F202A04DB203A00FA02F10020C0
:103C400070479140C2F1200320FA03F319439040DA
:103C50007047202A04DB203A21FA02F00021704745
:103C600021FA02F3D040C2F12002914008431946E4
:103C70007047202A06DBCB17203A41FA02F043EACC
:103C8000E07306E041FA02F3D040C2F12002914015
:103C900008431946704710B5002B08DA401C41F163
:103CA000000192185B411A4301D120F0010010BDC0
:103CB0002DE9F04D92469B4611B1B1FA81F202E036
:103CC000B0FA80F220329046FFF7B4FF04460F4668
:103CD00040EA0A0041EA0B0153465A46084303D121
:103CE00020463946BDE8F08D114653EA010015D053
:103CF000C8F140025046FFF7ACFF05460E4650465D
:103D000059464246FFF796FF084301D0012000E0E4
:103D10000020054346EAE0762C4337430A984FEAF1
:103D20004453A0EB08004FEAD4240A304FF00002BD
:103D300044EA47544FEAD72502D500200146D1E78F
:103D4000010510196941DDE9084500196941BDE81F
:103D5000F04DA0E72DE9F04D00231A461B1A8A41C9
:103D600003DB00200146BDE8F08DC1F30A52C1F328
:103D7000130141F480154FF0000BD10702D1001858
:103D80006D41521E0027044640F2FF11384601EBF8
:103D9000620A3E468046024600204FF48011FFF73B
:103DA00058FFC2197141BB1846EB0100B4EB030C7C
:103DB00075EB000C04D3E41A65EB000517460E46BC
:103DC000241908F101006D4180463428E3DDF9191A
:103DD00046EB0600091BA84103D24FF0FF32134601
:103DE00001E0002213461BEB070046EB0A51BDE839
:103DF000F04DFFF750BF0000064C074D06E0E068AD
:103E000040F0010394E8070098471034AC42F6D321
:103E1000FCF7BEF9C8580008F85800080000000078
:103E20000FB4054B10B503A9044A029800F0AEFA8E
:103E300010BC5DF814FB00009B1800085400002023
:103E40000FB4084B10B504A902AA039800F09EFA1B
:103E5000044602A9002000F0F9FB204610BC5DF8E2
:103E600014FB00004D46000803B40198410000987F
:103E700050EAC12018BF04204A0D18BF40F00100CD
:103E800040F2FF72B2EB515F08BF40F00200012820
:103E900008BF052002B0704770B59F482DED020B9A
:103EA0002DED068B079D25F00044A0421DDC9B48AC
:103EB000844202DC0FD1069868B19DED060B53ECED
:103EC000102B51EC100BFFF7CCFCBDEC068B02B0B5
:103ED00041EC100B70BD002DCCBF9FED910B9FED01
:103EE000920BBDEC068B02B070BD9148A04215DD6F
:103EF0009048A042D8BF4FF0FF3440DD9DED060B47
:103F000051EC100BFFF7B0FF042808BF00F0F4F9E4
:103F10009DED060BBDEC068B02B070BD9DED060B52
:103F200051EC100B00F0C8FB41EC100B82488DEDFA
:103F3000060B9FED838BA0423CDD8348A0421FDD32
:103F400000249FED839B51EC100B53EC192BFFF7D2
:103F500088FC9DED060B41EC1A0B53EC192B51EC30
:103F6000100BFFF725FD53EC182BFFF71BFD53EC4F
:103F70001A2BFFF78FFD41EC100B8DED060B49E07E
:103F8000012453EC182B51EC100BFFF76AFC9DED4C
:103F9000060B41EC190B53EC182B51EC100BFFF7EF
:103FA00001FD53EC192BFFF775FD41EC100B8DED66
:103FB000060B2FE06848A0421FDD02249FED689B9E
:103FC00051EC100B53EC192BFFF7F2FC53EC182BB0
:103FD000FFF747FC9DED060B41EC180B53EC192B3A
:103FE00051EC100BFFF7DEFC53EC182BFFF752FDE2
:103FF00041EC100B8DED060B0CE053EC102B032461
:104000009FED590B51EC100BFFF744FD41EC100BE9
:104010008DED060B9DED060B53EC102B51EC100BA8
:10402000FFF7C6FC41EC180B53EC182BFFF7C0FC54
:1040300041EC190B4E480621B0EE490AF0EE690A30
:10404000784400F0DAF853EC182B51EC100BFFF722
:10405000AFFC41EC180B4748B0EE490AF0EE690A94
:104060000521784400F0C9F853EC192B51EC100BE2
:10407000FFF79EFC41EC100B51EC180B53EC102B8E
:10408000002C0EDAFFF7EDFB9DED061B53EC112B18
:10409000FFF78EFC9DED061B53EC112BFFF785FC03
:1040A00035E0FFF7DEFB9DED061B53EC112BFFF710
:1040B0007FFC41EC100B3048784400EBC40090EDDD
:1040C000001B51EC100B53EC112BFFF76BFC9DED1B
:1040D000061B53EC112BFFF765FC41EC110B274835
:1040E000784400EBC40090ED000B51EC110B53EC45
:1040F000102BFFF75AFC41EC100B002DA2BFBDECBA
:10410000068B02B070BD51EC100B81F0004141EC08
:10411000100BFFE600000000000010440000F07FDC
:10412000182D4454FB21F93F182D4454FB21F9BFAD
:104130000000DC3F0000203E0000F33F00000000D4
:10414000000000000000F03F0000E63F000000001B
:10415000000000000000004000800340000000005C
:10416000000000000000F83F000000000000F0BF69
:10417000541800000A180000941700004C170000A3
:1041800000B52DED048BB0EE408AF0EE608A83B06E
:1041900051EC180BFFF7DEFD41EC190B19EE100A7C
:1041A00019EE901A8DED009B002818BF01200843DE
:1041B00020F00040C0F17F6000F1E040C00F14D05B
:1041C00018EE101A18EE900A8DED008B002918BF1A
:1041D0000121084320F00040C0F17F6000F1E04081
:1041E000C00F04BF012000F0A7F8B0EE490A03B0E9
:1041F000F0EE690ABDEC048B00BD70B504462DEDF0
:10420000028B4D1E00EBC500B0EE408AF0EE608AD6
:1042100090ED000B35F0060017D053EC182B51EC45
:10422000100BFFF7C5FB41EC100B6D1E04EBC50036
:1042300090ED001B51EC100B53EC112BFFF711FB11
:1042400041EC100B35F00600E7D1022D36D0042DDD
:104250001CD0062D1CBFBDEC028B70BD53EC182B7F
:1042600051EC100BFFF7A4FB94ED0A1B53EC112B40
:10427000FFF7F7FA53EC182BFFF79AFB94ED080BB6
:1042800053EC102BFFF7EDFA41EC100B53EC182B0D
:1042900051EC100BFFF78CFB94ED060B53EC102B3D
:1042A000FFF7DFFA53EC182BFFF782FB94ED041BAA
:1042B00053EC112BFFF7D5FA41EC100B53EC182BF4
:1042C00051EC100BFFF774FB94ED020B53EC102B29
:1042D000FFF7C7FA53EC182BFFF76AFB94ED000BBE
:1042E00053EC102BFFF7BDFABDEC028B41EC100B29
:1042F00070BD0000000000009FED050B10B553ECF1
:10430000102B51EC100BFFF753FB41EC100B10BDC1
:10431000000000000000001002E008C8121F08C1E1
:10432000002AFAD170477047002001E001C1121F36
:10433000002AFBD170470000014908607047000067
:10434000D400002010B5002A06DA22F00042D21D67
:1043500022F00703102203E0D21C22F003030C22F8
:1043600013B19C188C4201D9012010BD02440144B4
:104370008360C0E90021C91AD018884202D81060B1
:104380000246F9E70020106010BD00002DE9FF4F44
:104390008DB09B460F460446002638E1252801D003
:1043A0000F9959E00025641C9D49A84601222378F5
:1043B000203B02FA03F0084202D00543641CF6E7F2
:1043C00020782E2817D114F8010F45F004052A286B
:1043D0000ED06FF02F022078A0F1300109290AD801
:1043E00008EB880102EB410100EB0108641CF2E7D5
:1043F00057F8048B641C20786C280DD004DC4C2802
:1044000012D06A2811D104E074280DD07A280CD17A
:104410000AE045F4001507E0617845F48015814213
:1044200002D1641C05F58015641C2278692A46D0E7
:1044300008DC002A70D0582A69D0632A11D0642A77
:1044400008D13CE0702A69D0732A14D0752A5CD058
:10445000782A5CD00F9910465A46904706F101061B
:10446000D4E017F8040B8DF8000000208DF801004F
:10447000E946012003E057F8049B4FF0FF3069073D
:104480004FF0000501D40AE06D1C45450DDA854268
:10449000FADB19F805100029F6D106E06D1C8542FB
:1044A000FCDB19F805100029F8D12E4404E019F8B6
:1044B000010B5A460F9990476D1EF8D2A6E00A20CC
:1044C0000021CDE90801C5F3025002280BD001CF2D
:1044D000C11700290EDA4FF0000CD0EB0C006CEB8A
:1044E00001012D2309E007F1070727F00707F7E887
:1044F0000201EEE72B0504D52B238DF8283001238C
:1045000030E0EB072ED02023F7E70A2000E0102050
:104510000021CDE9080109E07DE0FFE7102000213E
:1045200045F00405CDE908014FF00808C5F3025035
:1045300002281BD001CF00214FF0000A2B0712D513
:10454000702A19D0DDE908C38CF0100C5CEA030C6A
:1045500009D150EA010306D030238DF828308DF8B8
:10456000292002239A46582A10D00AE0FF1D27F07E
:104570000707F7E80201DFE740228DF828204FF017
:10458000010A28A20DF120090B9209E02AA2F9E7FD
:10459000DDE90823FFF71DFB0B9B9B5C09F8013D40
:1045A00050EA0102F4D1ADEB090000F120000890BF
:1045B000680701D44FF001080899884502DDA8EB8F
:1045C000010000E000208046002506E00AA85A46C7
:1045D000405D0F999047761C6D1C5545F6DB04E055
:1045E00030205A460F999047761CB8F10001A8F187
:1045F0000108F5DC05E019F8010B5A460F999047C0
:10460000761C0899481E08900029F4DC641C207868
:1046100000287FF4C3AE11B03046BDE8F08F000033
:104620000928010030313233343536373839616288
:10463000636465660000000030313233343536374C
:104640003839414243444546000000000A68531C83
:104650000B6010707047000008480068C0010BD55F
:1046600007480068C00707D0054880380068002860
:1046700002DA04490120087070470000FCED00E0F8
:10468000800E00E0CA0000204FF06042D36F002B84
:10469000FCD0C36AD367D36F002BFCD0C07840EA4C
:1046A0000120A2F87C0070474FF06041CA6F002AD9
:1046B000FCD081F87C00704741EC100B82B010EE0A
:1046C000900A8DED000B20F0004001909DED000B55
:1046D00002B051EC100B704770B504000D4603D0CA
:1046E00012B92078012801D0802070BD204600F04A
:1046F000E7FA28B12946204600F040F8002070BDB6
:10470000812070BD0246084810B500EB810050F8CA
:10471000040C002806D0114600F026FCBDE810402D
:1047200000F012BC10BD0000141B001010B50446B0
:104730008089002821D0608904EB8000006908602E
:104740006078022805D10021204600F00DFC00F021
:10475000FBFB04F10C0000BFD0E85F1F491EC0E85E
:10476000521F002AF8D16089401C80B26081E18923
:10477000884201D100206081042010BD10B500F0F6
:10478000F3FBBDE8104000F0DFBB0000EFF3058154
:1047900009B182207047DFF808C000DF70470000D1
:1047A00075540008EFF305820AB182207047EFF3D9
:1047B0001482144B12F0030206D0012A1BD0022AE5
:1047C00011D0032A19D113E0EFF3088282F309888C
:1047D0001A78D2070AD0022282F31488BFF34F8FCF
:1047E000BFF36F8F09E01A78D20706D10322F3E7EF
:1047F0001A78D20701D0FF207047DFF80CC000DF25
:104800007047000074570008895400082DE90E40D5
:10481000EFF30582B2B102004FF0800000D021B169
:104820000090DDE9011203B000BD11780129F7D134
:1048300001A91046FFF77AFF042801D00020EFE716
:104840001020EDE7DFF804C000DFECE78155000839
:104850002DE97040EFF3058272B10C4600F044FD83
:104860004FF0004530B1210C04D1058BC178A0B2C6
:10487000FFF748FF284670BDDFF804C000DF70BDB9
:10488000BB550008EFF305830BB182207047DFF8BA
:1048900008C000DF70470000E1550008EFF3058213
:1048A0000AB100207047DFF808C000DF7047000041
:1048B00035560008DFF80CC000DFDFF80CC000DF61
:1048C000FEE70000A5560008C1560008DFF804C046
:1048D00000DF7047F9560008094C4FF0FF352946B4
:1048E0002068FFF793FF02460846102AF7D1FFF72A
:1048F000EDFF0028F3D0024608469047EFE700009E
:10490000200000204FEA000151E8000F28B10368A1
:1049100041E80032002AF7D17047BFF32F8F70476C
:1049200010B568B161B10B3121F003020168446830
:104930000B1A1B1B934205D2084609680029F5D1C2
:10494000002010BD3CB121180368C1E900320160AC
:1049500001F1080010BD4260083010BD70B50C4672
:10496000002812D04FF6FF71084D884204D22A6801
:104970000146104600F024FB28684470044800F00B
:1049800025F9BDE8704000F0DDBB70BDBC00002023
:10499000500100200F4810B50D4942680E480B68C1
:1049A0000088934204D00A60CB88421E1A448A8051
:1049B0008A8882420AD100200860064800F006F981
:1049C0000146BDE81040034800F028BB10BD0000C0
:1049D000CC00002050010020C800002070B5194D07
:1049E000E86800282CD0A88A401EA882002621E072
:1049F000A06838B161684160606810B1A1688160E9
:104A00006660A6600F482146183800F007FBA08AB0
:104A1000A8826078042804D10B49E08A09880844F8
:104A2000A08201206070E068E860E06808B105617C
:104A3000E6602661A88A002802D1EC68002CD7D154
:104A400070BD000068010020C800002070B504009F
:104A50000FD00D4DA17801262868827891420CD99B
:104A600000F0F8FA286846702046BDE8704000F073
:104A700069BB064800F0AAF8F7E766702146BDE872
:104A80007040024800F0CABABC000020500100206B
:104A90000321FFF763BF000010B50446008B0843F5
:104AA00020836278618B062A18D0052A19D1084222
:104AB00017D001EA0002628388432083204600F079
:104AC000E9FA01206070628B0821204600F0DAFAD2
:104AD0002146BDE81040034800F0A0BA31EA0002C8
:104AE000EAD010BD500100200246154810B500EB79
:104AF000810050F8044C002C21D0208B10432083DF
:104B00006278618B062A17D0052A18D1084216D080
:104B100001EA0002628388432083204600F0BAFA4B
:104B200001206070628B0821204600F0ABFA20461D
:104B3000BDE81040FFF78ABF31EA0002EBD010BD9C
:104B4000141B001003460E4810B504688C46208BD9
:104B500042B133EA000101D0062009E098432083E6
:104B6000022010BD10EA030201D06283F6E705209F
:104B7000C1B263836046FFF7F1FE012010BD000063
:104B8000BC000020814202D342688A4201D8012041
:104B9000704750E8002F0A6040E80012002AF8D160
:104BA0000020704768B161B10839002202E0024676
:104BB000006830B18842FAD12AB100681060002044
:104BC00070470120704700214160F8E701464068C6
:104BD00042684A600B780022022B05D0012B03D0DB
:104BE000032B01D04260704743680BB1996042606B
:104BF00082607047810700D00020704770B504467E
:104C000000201546207001226270A1706060A060D3
:104C1000E0602061A082E0822083608384F820002D
:104C2000608C18B90448FFF76DFEA0622946204643
:104C3000BDE8704000F01CB86001001008B1082900
:104C400001D2012070470144091F002201600A605F
:104C5000426010467047000003480021016003498C
:104C60000968C18070470000CC0000206C57000824
:104C700010B5428C920803D10F4A1268C2F38D021C
:104C8000836A03EB8202530700D5121F403A4FF0AC
:104C90008073C2E90E1300234FEA030442F8234055
:104CA0005B1C0E2BFAD3C36913624262C162806A35
:104CB0000249016010BD000068570008A52E5AE2A5
:104CC000C1898089081A704701220270002242704F
:104CD0008270426002814281103982818908C181DB
:104CE000704700002DE9F0410446407800270E4649
:104CF0004FF00108012855D004F10C0502282BD0F3
:104D0000032818D0A089E189884262D2208904EB67
:104D100080000661D5E85F0F401CC5E8510F0029EF
:104D2000F8D12089401C80B22081E189884200D1DD
:104D30002781BDE8F0810846FFF7E4FD0600F8D0C2
:104D40002046FFF743FF0546606800B967703146AB
:104D5000284600F091F931E02046FFF737FF06467C
:104D6000606800B967700021304600F085F921893C
:104D7000F06904EB81010861D5E85F0F401CC5E8CC
:104D8000510F0029F8D12089401C80B22081E1898F
:104D9000884200D1278186F80180304600F07AF9F8
:104DA000314611E02046FFF711FF0546606800B963
:104DB000677032461021284600F064F985F80180BA
:104DC000284600F067F92946BDE8F041034800F0A5
:104DD00025B9BDE8F0410320FBF7B8BB5001002026
:104DE00070B50446808915460026C8B3608904EB77
:104DF0008000006908606089401C80B26081E189A0
:104E0000884200D16681607802280AD014F10C042F
:104E1000D4E85F0F401EC4E8510F0029F8D10020EC
:104E200070BD2046FFF7D2FE0546606800B9667087
:104E30000021284600F020F92189E86904EB81016E
:104E400008612089401C80B22081E189884200D11C
:104E50002681284600F01EF92846FFF7F7FDDEE719
:104E6000FFE73DB10A48626801682AB1204600F0B8
:104E7000D5F807E0012070BD61600068C0E90164F9
:104E80000120607008212846FFF768FDF2E7000066
:104E9000BC000020411C13D00B4A4FF6FE7190421B
:104EA0000CD800EB4002C2EBC0120848036803EBC9
:104EB000C202521EB2FBF3F0884200D90846704786
:104EC0004FF6FF707047000000093D00785700085A
:104ED00070B51A4801210068417000F0BBF8184D08
:104EE0006C7816E005EBC40148680278E2B1012A4B
:104EF0001FD000F0FBF8E878641C844200D1002445
:104F00000F48801CD0E84F1F491EC0E8421F002AEE
:104F1000F8D1A8780028E5D16C700A48FFF756FE52
:104F2000BDE8704000F00EB9896889B2FFF7B4FDA2
:104F3000E1E78968FFF7D6FEDDE70000BC0000204E
:104F4000901A0010500100200548017811B101218C
:104F50004170704703494FF080500860704700006F
:104F6000C400002004ED00E0F0B4144B9C1CDD787C
:104F70004FEA030CD4E84F2FAA4202D1BFF32F8F80
:104F80000EE0521CC4E8462F002EF3D1DCE84F2F70
:104F9000541CAC4200D10024CCE8464F002EF5D181
:104FA000DC78944205D903EBC202C2E90101F0BCEE
:104FB0007047F0BC0220FBF7C9BA0000901A00103D
:104FC000154A10B5D368FBB113469B8A09E000BFB0
:104FD000D2F80CC0BCF1000F16D0BCF814406246E9
:104FE00023448B42F4D3D468C460D0600261D0F80B
:104FF0000CC0BCF1000F01D0CCF81000591A81820E
:10500000908A401A908210BD0024C460D060C91AF2
:1050100002619182848210BD6801002010B502787F
:105020000023022A03D0012A01D0032A00D1012340
:1050300091F802C000E01046426812B194786445CD
:10504000F9D24A6041601BB102B19160886010BD25
:105050000020FBE703494A68426000228260486002
:10506000704700005001002090F82010406A09B1FC
:10507000603070472030704710B50C46FFF7F4FFE2
:10508000046010BD70B50C461546FFF7EDFFC0E992
:10509000004570BD10B5016900290ED0C268CA6014
:1050A000C36800223BB18B8A848A23448B82C36805
:1050B0001961C26000E08A82026110BD816839B165
:1050C00042684A604168002901D080688860704762
:1050D000054906E04A68824202D14068486070474C
:1050E00011460029F6D170475001002010B54168E3
:1050F00081B1FFF76BFD0446FFF7CCFF0120607024
:1051000001462046FFF7B8FF2146BDE8104003489E
:10511000FFF784BF4188491C418010BD5001002029
:1051200006480068D0E90910814203D300680449A9
:10513000884202D00120FBF709BA7047BC0000206A
:10514000A52E5AE20749022248604270064A1278A8
:10515000002A05D006C98A4202D0C078FFF7A4BA57
:1051600070470000BC000020CA0000202DE9F0417B
:1051700004460D469046FFF76FFA00200646384970
:10518000384B02E041F82060401C1A889042F9D365
:105190003548302201883548FFF7D4F83448006894
:1051A00080B240F00042334801683348FFF7CAF844
:1051B00032480822018832480068FFF7C3F8314FAF
:1051C000FF20314AF8707E8400213846FFF716FD33
:1051D0002E480421017046602D480170C6600661AA
:1051E0008682786A2030FAF7DDFF2A482B4907606B
:1051F000022078702848067046700978C1702848E7
:1052000001684FF0E0204161866107210161254876
:105210000168254A114301600068224900F07F407F
:10522000C0431439B0FA80F00968C0F10800C1F336
:105230000221814200DB481C1A49091F0B686FF0EC
:105240008072824063F317020A60FFF705FD424651
:1052500029462046BDE8F041002300F06DB800006B
:10526000141B00106457000880570008000000104D
:10527000685700088457000860010010A85700080C
:1052800018000020200100204905000850010020DE
:1052900068010020BC000020901A00108C57000804
:1052A0007057000820ED00E00000FFFF0B4810B52C
:1052B000006801214170FFF7CDFEFFF76BFB084945
:1052C0000888401C0880FFF789FB00F021FA054898
:1052D000FFF77CFCBDE81040FFF734BFBC000020A6
:1052E000C800002050010020002805D0810702D10D
:1052F0000178002900D000207047000030B50D4C27
:105300000023226808E000BFB2F808C08C4505D829
:1053100013461268A1EB0C01002AF5D189B2026094
:10532000018112B11589691A11810BB1186030BD64
:10533000206030BDB80000202DE9F04180461646BF
:105340001F460D4611F0FF0F00D14D1C1648FFF708
:10535000D9FA040026D0280AA6626084E9B242463F
:105360002046E761FFF74AFC01251048104905E097
:1053700000EB850252F8042C22B16D1C0A8895427C
:10538000F6D9002500EB850040F8044C0948E5708B
:10539000007818B101212046FFF776F92046FFF783
:1053A00055FB2846BDE8F08100000010141B0010DA
:1053B00064570008CA0000202DE9F041244C234F17
:1053C000244B22680026D17808B1814218D103EB22
:1053D0008100567040F8046C1F48916AFFF7D2FBB9
:1053E00020688662397811B10021FFF74DF91B481A
:1053F0002168FFF7C7FB00202660FFF727FB1FE0AF
:105400001749098888421ED803EB800555F8044CDB
:10541000CCB12046FFF752FE2046FFF73BFE45F891
:10542000046C0D48A16AFFF7ADFBA662387818B18D
:1054300000212046FFF728F921460848FFF7A2FB84
:105440000020BDE8F081FF20FBE70000CA0000203B
:10545000BC000020141B00106001001000000010B0
:105460006457000802480068002800D0C0787047E0
:10547000BC00002010B5002805D0FFF70BFD80B25E
:10548000FFF706FB402010BD70B504000D4608D0A4
:10549000206830B1B4F9040010F1030F01DB0328D8
:1054A00001DD862070BD244E306840B1204600F0FA
:1054B000C1F8A0B100F0F6F800F002F937E01F489B
:1054C00040070CD11E4801681C48FFF7B7FB30B9F4
:1054D000E16831B11948FFF723FA020002D18520B3
:1054E00070BD0022B4F90400E168001D40EA01210A
:1054F0002068FFF73BFE7068D8B1C078114901EB16
:10550000800050F8040C3060416A0D62406A0E4918
:10551000416300210D4800F021F80D490860002189
:105520000C4800F087F80C4908600020306000202B
:1055300070BDFF2070BD0000BC00002030140010C2
:1055400088570008141B0010B5480008A057000831
:1055500020000020905700081C00002010B5040017
:1055600005D0216819B1606808B102780AB100203D
:1055700010BD8900103189B2FFF7A6FB606810BD2D
:105580003EB504000D464FF0800012D0217801296D
:105590000FD12846FFF77EFC82B201A92046FFF713
:1055A0001FFC012801D0102003E00DB1402000E0D5
:1055B0000020DDE9011203B030BD70B50C46FFF7E5
:1055C00093FE4FF0004108B1220C01D0084670BD97
:1055D000058BC178A0B2FFF787FA284670BD00009E
:1055E00070B504460D46000C01D086201EE008462A
:1055F0002CB1FFF74FFC81B20122A0B205E0FFF70A
:1056000049FC81B200224FF6FF70FFF79BFA022897
:1056100002D04DB1402008E008200CB1214605E041
:1056200003490968498B01E000200021324670BD22
:10563000BC00002070B504000E462BD0206848B393
:10564000B4F9040010F1030F24DB032822DCE16825
:1056500029B11148FFF764F9050015D000E00025D5
:10566000B4F90400E168001D40EA012133462A46EE
:105670002068FFF761FE40B1084901EB800008494E
:1056800050F8040C426A516370BD1DB129460248AE
:10569000FFF788FA002070BD30140010141B0010B2
:1056A000B548000810B5FFF7DDFE002804D0034917
:1056B00001EB800050F8040C10BD0000141B00101A
:1056C00070B5FFF711FE040003D0608C18B1A56A15
:1056D00002E0802070BD0025E078FFF76DFEFF2816
:1056E00006D01DB10348A16AFFF75CFA002070BD27
:1056F000812070BD3014001010B5FFF77BFA20B187
:1057000001690A68C168104610BD0020014610BD3D
:105710002DE9F041114E3468002C18D02089104F2B
:10572000401E20814FF001080EE0254624683460B9
:10573000002229463868FEF7CFFF6879012808D093
:1057400085F80480002C02D020890028EDD0BDE827
:10575000F08169892846FFF7D1FDF3E7B800002002
:1057600020000020070000002003020105000100C6
:105770003F90020001000000E8030000000000006C
:105780005C010000D0120000600600001000000064
:10579000D9480008020000000100000020030000BA
:1057A00004000000301B0010000000000F0600087D
:1057B00000000000010000002003000001000000C4
:1057C00002000000030000000400000005000000CB
:1057D0000A000000E5FFFFFF680000000400000071
:1057E0007D0600080000000001000000000000002D
:1057F0006F08000800000000010000000000000029
:10580000F708000800000000010000000000000090
:105810003D0A000800000000010000000000000038
:105820004B0B000800000000010000000000000019
:105830004FBB610567ACDD3F182D4454FB21E93FA8
:105840009BF681D20B73EF3F182D4454FB21F93F97
:10585000E2652F227F2B7A3C075C143326A6813C1D
:10586000BDCBF07A8807703C075C143326A6913CC8
:10587000C4EB98999999C9BF711623FEC671BCBF34
:105880006D9A74AFF2B0B3BF9AFDDE522DDEADBF9C
:105890002F6C6A2C44B4A2BF0D5555555555D53FB4
:1058A000FF8300922449C23F6E204CC5CD45B73FCF
:1058B000513DD0A0660DB13FEB0D76244B7BA93F47
:1058C00011DA22E33AAD903FF858000800000020BA
:1058D000D800000018430008F85800080000001025
:1058E000501B000028430008D0590008D8000020B1
:1058F000A804000028430008007A030A0000000002
:10590000000000000102030406070809000000006F
:105910000000000000000000000000000000000087
:105920005A0000005A0000000000000000000000C3
:105930000000000000000000000000000000000067
:105940000000000000000000001000000000000047
:105950000000000000000000010000000200000044
:105960000300000004000000050000000600000025
:105970000700000008000000090000000A00000005
:10598000000000000B00000000000000000000000C
:105990000000000000000000000000000000000007
:1059A00000000000010203040102030406070809C5
:1059B00000000000000000000000000000000000E7
:1059C00000000000000000000000000000000000D7
:040000050800018965
:00000001FF
