:020000040800F2
:1000000030050020250500082D0500082F050008F3
:100010003105000833050008350500080000000020
:1000200000000000000000000000000009020008BD
:100030003905000800000000AD0200080D030008AB
:100040003F0500083F0500083F0500083F05000880
:100050003F0500083F0500083F0500083F05000870
:100060003F0500083F0500083F0500083F05000860
:100070003F0500083F0500083F0500083F05000850
:100080003F0500083F0500083F0500083F05000840
:100090003F0500083F0500083F0500083F05000830
:1000A0003F0500083F0500083F0500083F05000820
:1000B0003F050008E30500083F0500083F0500086C
:1000C0003F0500083F0500083F0500083F05000800
:1000D0003F0500083F0500083F0500083F050008F0
:1000E0003F0500083F0500083F0500083F050008E0
:1000F0003F0500083F0500083F0500083F050008D0
:100100003F0500083F0500083F0500083F050008BF
:100110003F0500083F0500083F0500083F050008AF
:100120003F0500083F0500083F0500083F0500089F
:100130003F0500083F0500083F0500083F0500088F
:100140003F0500083F0500083F0500083F0500087F
:100150003F0500083F0500083F0500083F0500086F
:100160003F0500083F0500083F0500083F0500085F
:100170003F0500083F0500083F0500083F0500084F
:100180003F0500083F050008DFF814D001F09AFF92
:100190000021024802F018F9FEE70000583200087A
:1001A0003005002080F309887047684680F309888D
:1001B00004480078C00714BF0220032080F314888D
:1001C0007047000020320008DFF818C0EFF3058305
:1001D0001B0618BF6047EFF31483DB0708BF6047B7
:1001E00000DF7047C5240008DFF818C0EFF305836F
:1001F0001B0618BF6047EFF31483DB0708BF604797
:1002000000DF7047A9260008EFF30980816911F823
:10021000021C002933D190E80F1010B5E047BDE86B
:100220001040EFF3098C8CE807001D4B93E80600A3
:10023000914208BF704781B11EF0100F06BF2CED30
:10024000108A0120002081F820002CE9F00FC1F86D
:1002500024C00CB402F0F6FC0CBC1A60D2F824C026
:10026000BCE8F00F92F8200000281ABFBCEC108AFE
:100270006FF0120E6FF0020E8CF30988704710B504
:10028000084A1268914209D8074C54F8214090E876
:100290000F10A047EFF3098C8CE80F0010BD000091
:1002A00098000020E8200008E820000810B502F0BF
:1002B000A1FBBDE81040174B93E80600914208BF30
:1002C0007047EFF3098C1EF0100F06BF2CED108A5B
:1002D0000120002081F820002CE9F00FC1F824C093
:1002E0000CB402F0AFFC0CBC1A60D2F824C0BCE81D
:1002F000F00F92F8200000281ABFBCEC108A6FF0B3
:10030000120E6FF0020E8CF30988704710B502F0E0
:100310005FFDCEE7980000200CB500200190009012
:100320007548006840F480307349086000BF724827
:10033000006800F4003000900198401C0190009883
:1003400018B90198B0F5A06FF1D16B48006810F4AE
:10035000003F02D00120009001E0002000900098B2
:10036000012845D164484030006840F0805062491F
:10037000403108606148006840F480405F4908608F
:100380005D48083000685C4908310860084600682C
:1003900040F4004008600846006840F4A05008603F
:1003A0005748091F0860081F006840F08070091F47
:1003B000086000BF5048006810F0007FFAD040F29B
:1003C0000560504908604C480830006820F0030080
:1003D0004949083108600846006840F0020008609A
:1003E00000BF45480830006800F00C000828F8D12C
:1003F0000CBD10B54448006840F4700042490860E4
:100400003D48006840F001003B49086000203A493F
:1004100008310860384800683C490840364908609F
:100420003B48091D0860081F006820F48020091F50
:100430000860002030490C310860FFF76DFF4FF075
:10044000006031498039086010BD70B5002000227D
:10045000022300240221284D08352D6805F00C00E8
:1004600020B1042806D0082834D107E0294D2A4EAF
:10047000356033E0294D284E35602FE01E4D2D1D8F
:100480002D68C5F380541C4D2D1D2D6805F03F01CE
:1004900054B1224DB5FBF1F5174E361D3668C6F343
:1004A000881605FB06F209E01A4DB5FBF1F5124E70
:1004B000361D3668C6F3881605FB06F20E4D2D1D57
:1004C0002D68C5F301456D1C6B00B2FBF3F5124EB0
:1004D000356003E00F4D104E356000BF00BF064D84
:1004E00008352D68C5F303150D4E705D0A4D2D6856
:1004F000C540094E356070BD0038024000700040B4
:1005000008544007003C024088ED00E0FFFFF6FE83
:10051000103000240024F4000000002000127A00B3
:10052000040000200648804706480047FEE7FEE733
:10053000FEE7FEE7FEE7FEE7FEE7FEE7FEE7FEE793
:10054000F3030008890100081149096811F0010F3F
:100550000ED00F498039096811F0010F08D000BF93
:100560004FF0604109680029FAD04FF060421070E6
:10057000704770B504460D462046FFF7E5FF70BD95
:1005800010B504462046FFF7DFFF10BD00BFFEE7B1
:10059000800E00E000BFFEE700BFFEE700F0B0F80D
:1005A00000F088F900F0C2F900201549086015A094
:1005B00001F09CFD14E000BF114800680028FBD04A
:1005C00000200F49086000F00EFA1048016810483A
:1005D000006800F05EFA044621460EA001F086FD98
:1005E000E9E710B50121104801F069FC30B10121A3
:1005F0000D4801F075FC01200149086010BD0000A4
:10060000340000206D61696E0A0000006C0000205B
:10061000700000206B6579207072657373656420CB
:100620003D2025640A000000000400401CB50121A3
:10063000022000F0D4FD0121042000F09DFDC02027
:10064000009002208DF8040000208DF806000120A3
:100650008DF8070002208DF8050069462C4800F04F
:1006600045FB022206212A4800F0CBFB022207218B
:10067000274800F0C6FB1CBD10B54720254908805F
:1006800044F61F60244908800846008823494860D2
:10069000204800880880002008814880204800F019
:1006A00056FF60201F4908800120488040F2DC503E
:1006B0008860002088811A4800F0DEFF1949184838
:1006C00001F013F80121164800F0CAFF0121144877
:1006D00001F0B7FB01221146114801F0D9FB10BD12
:1006E00008B51D208DF8000000208DF801000120C4
:1006F0008DF802008DF80300684600F01CFA08BD72
:1007000010B5FFF793FFFFF7B7FFFFF7E9FF10BD45
:1007100000080240380000203A000020B00000200D
:1007200000040040BC0000201CB50121102000F096
:1007300023FD0121022000F01FFD01208DF804009F
:1007400000208DF8060002208DF8050000020090C0
:100750006946744800F0CAFA4FF480600090694618
:10076000704800F0C3FA4FF480616E4800F03CFB23
:100770004FF40060009069466A4800F0B7FA4FF401
:10078000805000906946674800F0B0FA4FF400507E
:1007900000906946634800F0A9FA4FF48040009049
:1007A0006946604800F0A2FA4FF4004000906946A4
:1007B0005C4800F09BFA4FF48060009069465A480C
:1007C00000F094FA4FF4006000906946564800F03B
:1007D0008DFA4FF4805000906946534800F086FA35
:1007E0001CBD10B50446012001F0E2FD0CB1012052
:1007F00000E0002002464FF400714A4800F0F6FA8B
:10080000012001F0D5FD4FF48061464800F0EAFA7E
:10081000012001F0CDFD4FF48061424800F0E4FA80
:10082000012001F0C5FD10BD70B504460D4604F071
:1008300001024FF400613B4800F0D8FA641004F064
:1008400001024FF48051374800F0D0FA641004F0F0
:1008500001024FF40051334800F0C8FA641004F06C
:1008600001024FF480412F4800F0C0FA641004F0F8
:1008700001024FF400412B4800F0B8FA641004F074
:1008800001024FF48061284800F0B0FA641004F0CF
:1008900001024FF40061244800F0A8FA641004F04B
:1008A00001024FF48051204800F0A0FA2846FFF7DB
:1008B00098FF70BD10B5FFF737FF00213020FFF71C
:1008C000B3FF00213820FFF7AFFF00210C20FFF716
:1008D000ABFF10BD10B500210120FFF7A5FF10BD33
:1008E00070B504460D46002606E020780121FFF78A
:1008F0009BFF641C701CC6B2AE42F6DB70BD10B527
:10090000044644F080000021FFF78EFF10BD10B5B3
:100910002820FFF7F4FF10BD10B500210F20FFF7CE
:1009200083FF10BD001002400004024010B50121F9
:10093000082000F021FC0120744908710020887112
:10094000022048710020C8711E200860704800F025
:10095000CDF900206F49087188710220487101208B
:10096000C871E02008606A4800F0C0F910BD10B5F9
:100970000120684908710020C871654800F0B6F987
:10098000E02064490860624800F0B0F900205F4947
:1009900008710120C8715E4800F0A8F91E205B496B
:1009A00008605B4800F0A2F910BD10B5012057495E
:1009B00008710020C871564800F098F91E2053496C
:1009C0000860534800F092F9002052490871012054
:1009D000C8714F4800F08AF9E0204E4908604C4841
:1009E00000F084F910BD10B500242021484800F023
:1009F000DFF918B900204849086001244021444823
:100A000000F0D6F918B9012043490860012480217B
:100A10003F4800F0CDF918B902203F490860012491
:100A2000002C35D0FFF7A3FF0221394800F0C0F9B0
:100A3000012813D10421364800F0BAF901280DD15C
:100A40000821334800F0B4F9012807D110213048BB
:100A500000F0AEF910B903203049086002212C489B
:100A600000F0A6F910B900202C490860042128489C
:100A700000F09EF910B90120284908600821244897
:100A800000F096F910B9022024490860FFF78DFFA5
:100A900010BD024602EB4200214B03EB800050F8F0
:100AA00021007047022806D004280ED0062816D050
:100AB000082828D11DE01B4991ED000AF7EE000A35
:100AC00030EE600A81ED000A1DE0174991ED000A41
:100AD000F7EE000A30EE600A81ED000A13E01249D9
:100AE00091ED000AF7EE000A30EE200A81ED000ACF
:100AF00009E00C4991ED000AF7EE000A30EE200AF9
:100B000081ED000A00BF00BF7047000074000020A4
:100B1000000C02407C0000206C00002070000020CF
:100B20003C0000202C00002030000020334901430D
:100B3000334A1160704770B5002100230F22C4783A
:100B400024B32F4C246804F4E064C4F5E064C4F3D7
:100B50000721C1F10404E3B20A4144789C40E1B2A8
:100B60008478144021430C07210E264C05786155EA
:100B7000047804F01F050124AC4005786D114FF096
:100B8000E02606EB8505C5F8004109E0047804F08D
:100B90001F040125A5401C4C0678761144F8265008
:100BA00070BD1A4A0A400243154B1B1F1A6070475A
:100BB00039B1134A121D12680243114B1B1D1A60F2
:100BC00006E00F4A121D126882430D4B1B1D1A606E
:100BD0007047042808D14FF0E021096941F0040171
:100BE0004FF0E022116107E04FF0E021096921F0A8
:100BF00004014FF0E0221161704700000000FA0587
:100C00000CED00E000E400E080E100E080FFFF1F69
:100C100010B504468C48844208D10121084600F0F2
:100C200000FB0021012000F0FCFA5EE087488442CE
:100C300008D10121022000F0F4FA0021022000F086
:100C4000F0FA52E08248844208D10121042000F0E9
:100C5000E8FA0021042000F0E4FA46E07D488442EE
:100C600008D10121082000F0DCFA0021082000F062
:100C7000D8FA3AE07848844208D10121102000F0E7
:100C8000D0FA0021102000F0CCFA2EE07348844204
:100C900008D10121202000F0C4FA0021202000F01A
:100CA000C0FA22E06E48844208D10121402000F0C1
:100CB000B8FA0021402000F0B4FA16E069488442F6
:100CC00008D10121802000F0ACFA0021802000F042
:100CD000A8FA0AE06448844207D10121801500F097
:100CE000A0FA0021A01500F09CFA10BDF0B50A464C
:100CF00000210023002400BF3DE0012505FA01F397
:100D0000156805EA03049C4234D105684F000326A8
:100D1000BE40B543056015794E00B54006683543C1
:100D200005601579012D02D01579022D16D185683F
:100D30004F000326BE40B543856055794E00B5404F
:100D4000866835438560456801268E40B543456019
:100D5000456896798E40B6B235434560C5684F0008
:100D60000326BE40B543C560D5794E00B540C66880
:100D70003543C560491C1029BFD3F0BD4FF6FF7144
:100D800001600021017141718171C171704708B525
:100D90004FF480320092009A0A430092009AC26196
:100DA000C161009AC261C2690092C269009208BD25
:100DB0000246002013690B4201D0012000E0002010
:100DC00070470146086980B27047024600205369A7
:100DD0000B4201D0012000E0002070470146486925
:100DE00080B2704701837047418370470AB1018325
:100DF00000E0418370474161704742694A40426167
:100E00007047F0B5002300244D07ED0E02FA05F3FC
:100E1000CE1000F1200555F826504E07F70E0F268C
:100E2000BE40B543CF1000F1200646F82750CE1043
:100E300000F1200555F8265045EA0304CE1000F1D4
:100E4000200545F82640F0BD0000024000040240A5
:100E500000080240000C0240001002400014024052
:100E600000180240001C024000200240FA480068BE
:100E700040F00100F84908600020F7490831086097
:100E8000F5480068F5490840F3490860F448091D31
:100E90000860081F006820F48020091F08600020F7
:100EA000ED490C31086070470021EB4A921C11702B
:100EB00011460870704710B501460022002300203B
:100EC0004A11012A02D1E44C236808E0022A03D126
:100ED000E14C7034236802E0DF4C7434236801F085
:100EE0001F02012494401C4201D0012000E0002098
:100EF00010BD38B5002000900024002500BF31202F
:100F0000FFF7D9FF05460098401C00900098B0F507
:100F1000A06F01D0002DF2D03120FFF7CCFF08B137
:100F2000012400E00024204638BD01460020CA4AC2
:100F3000106820F0F80040EAC10010607047C9490D
:100F4000086070470021C44A703211701170012886
:100F500002D004280AD104E00121BF4A7032117086
:100F600005E00521BC4A7032117000E000BF00BFEF
:100F70007047BD490860704770B5049C41EA82150E
:100F80000126C6EB530645EA0645054345EA0465D6
:100F9000B14E361D356070BDB2490866704782019A
:100FA00042EA0172AC4B84331A607047AD498866DF
:100FB0007047AC49C864704702460020A64B08330E
:100FC000186820F0EC6042EA01031843A24B083392
:100FD00018607047024600209F4B0833186820F0C5
:100FE000784042EA010318439B4B0833186070476E
:100FF00001460020984A0832106820F00300084398
:101000001060704794480830006800F00C0070478A
:1010100001460020904A0832106820F0F000084392
:1010200010607047014600208B4A0832106820F497
:10103000E05008431060704701460020864A08329D
:10104000106820F4604040EAC10010607047F0B5BD
:101050000021002200240225002602237E4F0837AB
:101060003F6807F00C0121B1042905D0082937D1C8
:1010700005E07E4F076036E07D4F076033E0764F36
:101080003F1D3F68C7F38056734F3F1D3F6807F011
:101090003F036EB1764FB7FBF3F7DFF8BCC10CF13D
:1010A000040CDCF800C0CCF3881C07FB0CF40CE04B
:1010B0006E4FB7FBF3F7DFF8A0C10CF1040CDCF8BE
:1010C00000C0CCF3881C07FB0CF4634F3F1D3F6846
:1010D000C7F301477F1C7D00B4FBF5F7076002E012
:1010E000624F076000BF00BF5B4F08373F6807F0E3
:1010F000F00109095F4F7A5C0768D7404760564F97
:1011000008373F6807F4E051890A5A4F7A5C47680C
:10111000D7408760504F08373F6807F46041490B5C
:10112000544F7A5C4768D740C760F0BD002100F497
:101130004072B2F5407F0AD1474A0832116821F463
:10114000F8114D4A02401143434A08321160424AA5
:1011500070321268C0F30B031A433F4B70331A60AE
:10116000704741494439086070473F494039086039
:10117000704742490860704739B1374A30321268C7
:101180000243354B30331A6006E0334A303212687E
:101190008243314B30331A60704739B12E4A3432B2
:1011A000126802432C4B34331A6006E02A4A343268
:1011B00012688243284B34331A60704739B1264A8B
:1011C000383212680243244B38331A6006E0224A50
:1011D000383212688243204B38331A60704739B175
:1011E0001D4A4032126802431B4B40331A6006E02E
:1011F000194A403212688243174B40331A607047D5
:1012000039B1154A443212680243134B44331A6011
:1012100006E0114A4432126882430F4B44331A608D
:10122000704739B10C4A1032126802430A4B10332E
:101230001A6006E0084A103212688243064B1033E7
:101240001A607047E1B1044A143212680243024B3B
:1012500014331A6019E0000000380240FFFFF6FE68
:101260001030002400004742800E47420024F40062
:1012700000127A0084000020FFFCFF0F5C0147424F
:101280005B4A126882435A4B1A60704739B1584A18
:10129000121D12680243564B1B1D1A6006E0544A89
:1012A000121D12688243524B1B1D1A60704739B1E0
:1012B0004F4A0C32126802434D4B0C331A6006E061
:1012C0004B4A0C3212688243494B0C331A60704708
:1012D00039B1474A103212680243454B10331A6045
:1012E00006E0434A103212688243414B10331A60C1
:1012F000704739B13E4A3C32126802433C4B3C33A2
:101300001A6006E03A4A3C3212688243384B3C335A
:101310001A60704739B1364A403212680243344B82
:1013200040331A6006E0324A403212688243304B42
:1013300040331A60704739B12D4A44321268024373
:101340002B4B44331A6006E0294A44321268824328
:10135000274B44331A60704739B1254A4C32126822
:101360000243234B4C331A6006E0214A4C32126888
:1013700082431F4B4C331A60704739B11C4A5032BC
:10138000126802431A4B50331A6006E0184A503272
:1013900012688243164B50331A60704739B1144AB1
:1013A000D21F12780243124BDB1F1A7006E0104A5C
:1013B000D21F127882430E4BDB1F1A7070470C4805
:1013C0006030006840F08070094960310860704703
:1013D00001460020064A083A12680A4201D001205C
:1013E00000E0002070470249891F08707047000024
:1013F0001438024010B50446FE48844208D1012149
:101400000846FFF765FF00210120FFF761FF9DE01F
:10141000B4F1804F08D101210846FFF748FF0021B1
:101420000120FFF744FF91E0F348844208D10121F5
:101430000220FFF73CFF00210220FFF738FF85E084
:10144000EE48844208D101210420FFF730FF00213B
:101450000420FFF72CFF79E0E948844208D10121FC
:101460000820FFF724FF00210820FFF720FF6DE090
:10147000E448844208D101211020FFF718FF002121
:101480001020FFF714FF61E0DF48844208D10121FA
:101490002020FFF70CFF00212020FFF708FF55E078
:1014A000DA48844208D101210220FFF711FF002110
:1014B0000220FFF70DFF49E0D548844209D1012100
:1014C0000804FFF705FF00214FF48030FFF700FF0D
:1014D0003CE0D048844209D101214804FFF7F8FEDE
:1014E00000214FF40030FFF7F3FE2FE0CA4884429A
:1014F00009D101218804FFF7EBFE00214FF4802081
:10150000FFF7E6FE22E0C548844208D101214020D1
:10151000FFF7CDFE00214020FFF7C9FE16E0C048CE
:10152000844208D101218020FFF7C1FE00218020E4
:10153000FFF7BDFE0AE0BB48844207D101218015B8
:10154000FFF7B5FE0021A015FFF7B1FE10BD002288
:101550000288A84B98420ED0AC4B98420BD0B0F109
:10156000804F08D0A44B984205D0A44B984202D09B
:10157000A34B984204D14FF68F731A404B881A43FD
:10158000A04B984207D0A04B984204D04FF6FF439F
:101590001A400B891A4302804B68C3620B8803858B
:1015A000944B984202D0994B984201D18B7A038692
:1015B0000123838270474FF0FF3141600021018099
:1015C00001814180817270470185828270470A469D
:1015D000002101884FF68F73194011430180704735
:1015E00041627047C16270470146486A70470146D0
:1015F000088D704721B1028842F00202028004E0A7
:1016000002884FF6FD731A400280704721B10288AC
:1016100042F00402028004E002884FF6FB731A4095
:101620000280704721B1028842F08002028004E00B
:1016300002884FF67F731A400280704702884FF687
:10164000F7731A40028002880A43028070470288BA
:101650004FF6FF431A40028002880A430280704717
:1016600021B1028842F00102028004E002884FF6B4
:10167000FE731A400280704770B5002400220023D8
:10168000058C4FF6FE7635400584028C8388048BEA
:101690004FF68F752C40B51E2C400D882C43751EBF
:1016A0002A408D892A434D882A43524DA84202D0B0
:1016B000564DA84213D14FF6F7752A40CD892A43DB
:1016C0004FF6FB752A408D882A434FF6FF652B4065
:1016D0004FF6FF552B400D8A2B434D8A2B438380B9
:1016E00004838D684563028470BD70B500240022B8
:1016F0000023058C4FF6EF7635400584028C8388F5
:10170000048B48F6FF752C404FF6FF452C400D88A2
:101710004FF6FF7606EA05252C434FF6DF752A4083
:101720008D8906EA05152A434D8806EA05152A43E0
:10173000304DA84202D0354DA8421DD14FF67F75DD
:101740002A40CD894FF6FF7606EA05152A434FF663
:10175000BF752A408D8806EA05152A434FF6FF35E6
:101760002B404FF2FF752B400D8A06EA85052B436F
:101770004D8A06EA85052B43838004838D68856343
:10178000028470BD70B5002400220023058C4FF642
:10179000FF6635400584028C8388848B4FF68F75F5
:1017A0002C404FF6FC752C400D882C434FF6FF550E
:1017B0002A408D894FF6FF7606EA05252A434D8893
:1017C00006EA05252A430B4DA84202D00F4DA84238
:1017D00038D14FF2FF752A40CD894FF6FF7606EAE1
:1017E00005252A434FF6FF352A408D8806EA052550
:1017F0002A4319E0000001400004004000080040B6
:10180000000C0040001000400014004000040140A3
:1018100000400140004401400048014000180040E1
:10182000001C0040002000404EF6FF752B404DF696
:10183000FF752B400D8A06EA05152B434D8A06EAF3
:1018400005152B43838084838D68C563028470BD36
:1018500070B5002200230024058C4EF6FF7635403B
:101860000584038C8488828B48F6FF752A404FF6E6
:10187000FF452A400D884FF6FF7606EA05252A43E4
:101880004DF6FF752B408D8906EA05352B434D88B3
:1018900006EA05352B43FE4DA84202D0FD4DA84275
:1018A00008D14BF6FF752C400D8A4FF6FF7606EAFD
:1018B00085152C43848082838D680564038470BD04
:1018C000002101804180818081608181C18101820C
:1018D0004182704770B50346002000241846183036
:1018E00001258D40ACB21D8CA5431D8409B108298A
:1018F0000AD100EB610005684FF68F763540056030
:101900000568154305600FE00D1FC5F34E0528441B
:10191000056848F6FF763540056005684FF6FF76A6
:1019200006EA02263543056070BD41637047816356
:101930007047C1637047016470470A460021018BFC
:101940004FF68F7319401143018370470A460021F7
:10195000018B48F6FF7319404FF6FF7303EA022329
:101960001943018370470A460021818B4FF68F731C
:1019700019401143818370470A460021818B48F644
:10198000FF7319404FF6FF7303EA02231943818363
:1019900070470A460021018B4FF6F7731940114337
:1019A000018370470A460021018B4FF2FF731940F3
:1019B0004FF6FF7303EA02231943018370470A4677
:1019C0000021818B4FF6F7731940114381837047D3
:1019D0000A460021818B4FF2FF7319404FF6FF73C7
:1019E00003EA02231943818370470A460021018BD1
:1019F0004FF6FB7319401143018370470A460021DB
:101A0000018B4FF6FF3319404FF6FF7303EA0223B1
:101A10001943018370470A460021818B4FF6FB73FF
:101A200019401143818370470A460021818B4FF68C
:101A3000FF3319404FF6FF7303EA022319438183F2
:101A400070470A460021018B4FF67F7319401143FE
:101A5000018370470A460021018BC1F30E014FF646
:101A6000FF7303EA02231943018370470A460021EA
:101A7000818B4FF67F7319401143818370470A466B
:101A80000021818BC1F30E014FF6FF7303EA02239D
:101A90001943818370470A460021018C4FF6FD737C
:101AA00019401143018470470A460021018C4FF60A
:101AB000F77319401143018470470A460021018CD5
:101AC0004FF6DF7319404FF6FF7303EA0213194311
:101AD000018470470A460021018C4FF67F7319403C
:101AE0004FF6FF7303EA02131943018470470A4655
:101AF0000021018C4FF6FF5319404FF6FF7303EAA4
:101B000002231943018470470A460021018C4FF2D9
:101B1000FF7319404FF6FF7303EA02231943018450
:101B200070470A460021018C4DF6FF7319404FF6AD
:101B3000FF7303EA023319430184704730B5002371
:101B400001248C40A3B2048C9C430484048C02FACC
:101B500001F5ADB22C43048430BD30B5002304241C
:101B60008C40A3B2048C9C430484048C02FA01F5DB
:101B7000ADB22C43048430BD828B4FF2FF331A4048
:101B80008283828B4FF6FF7303EA01231A43828319
:101B90007047F0B50C461546002100220026078C40
:101BA0004EF6FF7C07EA0C070784818B028C4FF608
:101BB000FF7707EA043640F6FF4739404FF6FF77D4
:101BC00007EA052739434FF6FF7707EA033739431A
:101BD00045F6FF773A4046F480573A4381830284C2
:101BE000F0BD828B4FF6F3731A408283828B0A43D7
:101BF00082837047F0B50C4615460021002200266E
:101C0000078C4FF6FF6C07EA0C070784818B028C68
:101C10004FF6FF7707EA04264FF60C7739404FF668
:101C2000FF7707EA03172F4339434FF2FF573A4034
:101C300046F480773A4381830284F0BD028B4FF2F1
:101C4000FF331A400283028B4FF6FF7303EA01232E
:101C50001A4302837047F0B50C4615460021002256
:101C60000026078C4FF6EF7C07EA0C070784018BF0
:101C7000028C4FF6FF7707EA041640F6FF4739401B
:101C80004FF6FF7707EA033739434FF6FF7703E054
:101C9000000001400004014007EA052739434FF6E0
:101CA0005F773A4046F010073A4301830284F0BD63
:101CB000028B4FF6F3731A400283028B0A430283AE
:101CC0007047F0B50C46154600210022068C4FF6F1
:101CD000FE773E400684018B028C4FF60C76314035
:101CE0007E1C06EA03162E4331434FF6F57632404A
:101CF00044F00106324301830284F0BD70B505460D
:101D00000C46208850B92389A28861882846FFF7AD
:101D1000D8FFE1882846FFF7CBFF25E0208804287C
:101D20000AD12389A28861882846FFF794FFE188B9
:101D30002846FFF783FF17E0208808280AD1238967
:101D4000A28861882846FFF755FFE1882846FFF7FB
:101D500048FF09E02389A28861882846FFF719FF18
:101D6000E1882846FFF708FF70BD0021018041800F
:101D7000012181800021C180018170472DE9F0415E
:101D800005460C4600260127608808B9022600E0B7
:101D90000026A088012801D1022700E00127208821
:101DA000A0B92389A28861882846FFF78AFFE188C5
:101DB0002846FFF77DFF23893A4631462846FFF73C
:101DC0004AFFE1882846FFF739FF13E02389A288FC
:101DD00061882846FFF73FFFE1882846FFF72EFF7E
:101DE00023893A4631462846FFF76BFFE1882846AB
:101DF000FFF75EFFBDE8F0810146486B7047014682
:101E0000886B70470146C86B70470146086C704785
:101E10000A884B881A438B881A43CB881A430B894C
:101E20001A434B891A438B891A43A0F84420704700
:101E30000021018041808180C180018141818181B7
:101E4000704731B1B0F8442042F40042A0F8442079
:101E500005E0B0F84420C2F30E02A0F84420704719
:101E600021B1828842F00402828004E082884FF629
:101E7000FB731A408280704721B1828842F00102D0
:101E8000828004E082884FF6FE731A408280704799
:101E90001AB183890B43838102E083898B43838159
:101EA00070478182704702460020138A0B4201D09E
:101EB000012000E000207047CA430282704730B51D
:101EC0000246002000230024158A05EA01039589B3
:101ED00005EA010413B10CB1012000E0002030BD7F
:101EE000CA430282704741EA0203A0F848307047B3
:101EF0001AB183890B43838102E083898B438381F9
:101F0000704721B1828842F00802828004E0828812
:101F10004FF6F7731A408280704701894FF6F872C6
:101F20001140018170470A46002101894FF68F73E5
:101F3000194011430181704730B504460D462946CA
:101F40002046FFF7F0FF208940F00700208130BDD8
:101F50002DE9F04104460D4616461F46602D06D178
:101F60003B46012231462046FFF775FE05E03B4621
:101F7000012231462046FFF7A4FE29462046FFF7FE
:101F8000D2FF208940F007002081BDE8F08130B504
:101F90000C4600210189C9B24FF6FF7505EA0325F9
:101FA000154325432943018130BD2DE9F041054604
:101FB0000E4617469846002443463A463146284680
:101FC000FFF7E5FF2C894FF6F870044044F0070452
:101FD0004FF68F70044044F070042C81BDE8F0810E
:101FE000F0B504460D4616461F463B463246294686
:101FF0002046FFF7CCFF208940F480402081F0BDCF
:1020000082884FF68F731A40828082880A438280CA
:10201000704702894FF6F8731A40028102890A4319
:102020000281704702894FF67F731A40028102894C
:102030000A4302817047F0B50C4615461E46002142
:10204000002200230189028B038C4FF6F877394078
:1020500021434FF6FC473A4040F201173A434FF60E
:10206000DD773B404FF6FF7707EA06172F433B43E8
:10207000018102830384F0BD21B1828842F0800295
:10208000828004E082884FF67F731A408280704716
:10209000A0F85010704730B50B46014600202022B2
:1020A000012409E021FA02F59D4205D303FA02F565
:1020B000491B04FA02F52844151EA2F10102F1DCC5
:1020C00030BD0000064C074D06E0E06840F001031B
:1020D00094E8070098471034AC42F6D3FEF758F85E
:1020E0006832000898320008000000000FB4054B69
:1020F00010B503A9044A029800F03AF810BC5DF844
:1021000014FB0000730500081400002002E008C85A
:10211000121F08C1002AFAD170477047002001E061
:1021200001C1121F002AFBD1704710B5002A06DA40
:1021300022F00042D21D22F00703102203E0D21C3D
:1021400022F003030C2213B19C188C4201D9012008
:1021500010BD024401448360C0E90021C91AD018AF
:10216000884202D810600246F9E70020106010BDD6
:102170002DE9FF4F89B09B460446002597E02528AE
:1021800033D10027641C4E49B84601222378203BF6
:1021900002FA03F0084202D00743641CF6E72078F5
:1021A0002E2819D114F8010F47F004072A280ED061
:1021B0006FF02F022078A0F1300109290CD808EB2C
:1021C000880102EB410100EB0108641CF2E70A9868
:1021D000641C50F8048B0A90207800286BD0642887
:1021E00008D0692806D0752820D05A460B99904708
:1021F0006D1C5BE00A994FF00A0901C90A91002899
:1022000004DAC0F100004FF02D0102E0390504D5D9
:102210002B218DF82010012103E0F90704D02021A3
:10222000F7E78A4608AE0EE00021FAE70A994FF078
:102230000A0901C90A91F7E74946FFF72CFF01F1A6
:10224000300106F8011D0028F6D1ADEB060000F1C3
:102250002009780701D44FF00108C84502DDA8EB3A
:10226000090000E000208046002706E008A85A4642
:10227000C05D0B9990476D1C7F1C5745F6DB04E051
:1022800030205A460B9990476D1CB8F10001A8F117
:102290000108F5DC05E016F8010B5A460B9990474A
:1022A0006D1CB9F10001A9F10109F4DC641C20786E
:1022B00000287FF464AF0DB02846BDE8F08F000021
:1022C0000928010008480068C0010BD507480068CC
:1022D000C00707D0054880380068002802DA0449A2
:1022E0000120087070470000FCED00E0800E00E067
:1022F000A60000204FF06042D36F002BFCD0C36AD1
:10230000D367D36F002BFCD0C07840EA0120A2F83D
:102310007C0070474FF06041CA6F002AFCD081F802
:102320007C00704770B504000D4603D012B92078C8
:10233000012801D0802070BD204600F053FA28B15A
:102340002946204600F02CF8002070BD812070BD89
:1023500010B504468089002821D0608904EB8000F4
:10236000006908606078022805D10021204600F04D
:102370008DFB00F07BFB04F10C0000BFD0E85F1F79
:10238000491EC0E8521F002AF8D16089401C80B263
:102390006081E189884201D100206081042010BD64
:1023A00010B500F073FBBDE8104000F05FBB00000B
:1023B000EFF3058109B182207047DFF808C000DF24
:1023C00070470000992F0008EFF305820AB18220C0
:1023D0007047EFF31482144B12F0030206D0012A67
:1023E0001BD0022A11D0032A19D113E0EFF308827F
:1023F00082F309881A78D2070AD0022282F314885D
:10240000BFF34F8FBFF36F8F09E01A78D20706D161
:102410000322F3E71A78D20701D0FF207047DFF8D4
:102420000CC000DF7047000020320008AD2F00080C
:102430002DE90E40EFF30582B2B102004FF08000AB
:1024400000D021B10090DDE9011203B000BD117888
:102450000129F7D101A91046FFF77AFF042801D01E
:102460000020EFE71020EDE7DFF804C000DFECE725
:10247000A5300008DFF80CC000DFDFF80CC000DF7B
:10248000FEE70000513100086D310008DFF804C09C
:1024900000DF7047A5310008094C4FF0FF35294691
:1024A0002068FFF7C5FF02460846102AF7D1FFF75C
:1024B000EDFF0028F3D0024608469047EFE7000002
:1024C000280000204FEA000151E8000F28B10368FE
:1024D00041E80032002AF7D17047BFF32F8F7047D1
:1024E00010B568B161B10B3121F003020168446895
:1024F0000B1A1B1B934205D2084609680029F5D127
:10250000002010BD3CB121180368C1E90032016010
:1025100001F1080010BD4260083010BD70B50C46D6
:10252000002812D04FF6FF71084D884204D22A6865
:102530000146104600F0D6FA28684470044800F0BE
:10254000D7F8BDE8704000F08FBB70BD9800002048
:10255000000100200F4810B50D4942680E480B6875
:102560000088934204D00A60CB88421E1A448A80B5
:102570008A8882420AD100200860064800F0B8F834
:102580000146BDE81040034800F0DABA10BD000073
:10259000A800002000010020A400002070B5194D03
:1025A000E86800282CD0A88A401EA882002621E0D6
:1025B000A06838B161684160606810B1A16881604D
:1025C0006660A6600F482146183800F0B9FAA08A64
:1025D000A8826078042804D10B49E08A098808445D
:1025E000A08201206070E068E860E06808B10561E1
:1025F000E6602661A88A002802D1EC68002CD7D1B9
:1026000070BD000018010020A400002070B5040077
:102610000FD00D4DA17801262868827891420CD9FF
:1026200000F0AAFA286846702046BDE8704000F025
:102630001BBB064800F05CF8F7E766702146BDE872
:102640007040024800F07CBA980000200001002091
:102650000321FFF763BF000010B50446008B084359
:1026600020836278618B062A18D0052A19D1084286
:1026700017D001EA0002628388432083204600F0DD
:102680009BFA01206070628B0821204600F08CFAD2
:102690002146BDE81040034800F052BA31EA00027A
:1026A000EAD010BD00010020814202D342688A4274
:1026B00001D80120704750E8002F0A6040E800125E
:1026C000002AF8D10020704768B161B108390022B2
:1026D00002E00246006830B18842FAD12AB10068AF
:1026E0001060002070470120704700214160F8E72A
:1026F0000146406842684A600B780022022B05D0F0
:10270000012B03D0032B01D04260704743680BB10B
:102710009960426082607047810700D00020704756
:1027200070B5044600201546207001226270A17029
:102730006060A060E0602061A082E082208360830E
:1027400084F82000608C18B90448FFF7BBFEA06233
:1027500029462046BDE8704000F01CB8600100101A
:1027600008B1082901D2012070470144091F002245
:1027700001600A6042601046704700000348002173
:10278000016003490968C18070470000A80000206B
:102790001832000810B5428C920803D10F4A126813
:1027A000C2F38D02836A03EB8202530700D5121F26
:1027B000403A4FF08073C2E90E1300234FEA03043E
:1027C00042F823405B1C0E2BFAD3C36913624262AA
:1027D000C162806A0249016010BD00001432000825
:1027E000A52E5AE2C1898089081A70470122027019
:1027F00000224270827042600281428110398281DF
:102800008908C181704700002DE9F04104464078F5
:1028100000270E464FF00108012855D004F10C05A1
:1028200002282BD0032818D0A089E189884262D2DF
:10283000208904EB80000661D5E85F0F401CC5E8E5
:10284000510F0029F8D12089401C80B22081E189F4
:10285000884200D12781BDE8F0810846FFF732FEAB
:102860000600F8D02046FFF743FF0546606800B930
:1028700067703146284600F091F931E02046FFF7B5
:1028800037FF0646606800B967700021304600F0E7
:1028900085F92189F06904EB81010861D5E85F0FB2
:1028A000401CC5E8510F0029F8D12089401C80B296
:1028B0002081E189884200D1278186F80180304655
:1028C00000F07AF9314611E02046FFF711FF054686
:1028D000606800B9677032461021284600F064F93C
:1028E00085F80180284600F067F92946BDE8F041E7
:1028F000034800F025B9BDE8F0410320FDF74CBEC8
:102900000001002070B50446808915460026C8B332
:10291000608904EB8000006908606089401C80B217
:102920006081E189884200D16681607802280AD0FE
:1029300014F10C04D4E85F0F401EC4E8510F0029C5
:10294000F8D1002070BD2046FFF7D2FE0546606832
:1029500000B966700021284600F020F92189E86955
:1029600004EB810108612089401C80B22081E1894B
:10297000884200D12681284600F01EF92846FFF73C
:1029800045FEDEE7FFE73DB10A48626801682AB10B
:10299000204600F0D5F807E0012070BD61600068B6
:1029A000C0E901640120607008212846FFF7B6FDE8
:1029B000F2E7000098000020411C13D00B4A4FF6AC
:1029C000FE7190420CD800EB4002C2EBC0120848E6
:1029D000036803EBC202521EB2FBF3F0884200D937
:1029E000084670474FF6FF707047000000093D0031
:1029F0002432000870B51A4801210068417000F0C7
:102A0000BBF8184D6C7816E005EBC40148680278F5
:102A1000E2B1012A1FD000F0FBF8E878641C844280
:102A200000D100240F48801CD0E84F1F491EC0E889
:102A3000421F002AF8D1A8780028E5D16C700A4816
:102A4000FFF756FEBDE8704000F00EB9896889B204
:102A5000FFF702FEE1E78968FFF7D6FEDDE7000039
:102A600098000020901A001000010020054801780D
:102A700011B101214170704703494FF08050086047
:102A800070470000A000002004ED00E0F0B4144BFB
:102A90009C1CDD784FEA030CD4E84F2FAA4202D1E8
:102AA000BFF32F8F0EE0521CC4E8462F002EF3D147
:102AB000DCE84F2F541CAC4200D10024CCE8464F38
:102AC000002EF5D1DC78944205D903EBC202C2E9AD
:102AD0000101F0BC7047F0BC0220FDF75DBD0000B5
:102AE000901A0010154A10B5D368FBB113469B8AA3
:102AF00009E000BFD2F80CC0BCF1000F16D0BCF842
:102B00001440624623448B42F4D3D468C460D0603E
:102B10000261D0F80CC0BCF1000F01D0CCF810005D
:102B2000591A8182908A401A908210BD0024C46094
:102B3000D060C91A02619182848210BD1801002000
:102B400010B502780023022A03D0012A01D0032AFB
:102B500000D1012391F802C000E01046426812B192
:102B600094786445F9D24A6041601BB102B191602A
:102B7000886010BD0020FBE703494A6842600022DC
:102B800082604860704700000001002090F820102B
:102B9000406A09B1603070472030704710B50C466C
:102BA000FFF7F4FF046010BD70B50C461546FFF743
:102BB000EDFFC0E9004570BD10B5016900290ED0D8
:102BC000C268CA60C36800223BB18B8A848A2344EE
:102BD0008B82C3681961C26000E08A82026110BD05
:102BE000816839B142684A604168002901D0806833
:102BF00088607047054906E04A68824202D1406811
:102C00004860704711460029F6D170470001002046
:102C100010B5416881B1FFF76BFD0446FFF7CCFFAB
:102C20000120607001462046FFF7B8FF2146BDE84D
:102C300010400348FFF784BF4188491C418010BD04
:102C40000001002006480068D0E90910814203D342
:102C500000680449884202D00120FDF79DBC7047FE
:102C600098000020A52E5AE20749022248604270CF
:102C7000064A1278002A05D006C98A4202D0C078D6
:102C8000FFF748BB7047000098000020A600002016
:102C90002DE9F04104460D469046FFF713FB002056
:102CA00006463849384B02E041F82060401C1A883B
:102CB0009042F9D33548302201883548FFF735FA7C
:102CC0003448006880B240F000423348016833481D
:102CD000FFF72BFA32480822018832480068FFF7D4
:102CE00024FA314FFF20314AF8707E8400213846A3
:102CF000FFF716FD2E480421017046602D48017033
:102D0000C66006618682786A2030FDF74BFA2A4851
:102D10002B490760022078702848067046700978B1
:102D2000C170284801684FF0E020416186610721A9
:102D3000016125480168254A114301600068224964
:102D400000F07F40C0431439B0FA80F00968C0F148
:102D50000800C1F30221814200DB481C1A49091F07
:102D60000B686FF08072824063F317020A60FFF70E
:102D700005FD424629462046BDE8F041002300F00B
:102D80006DB80000141B0010103200082C3200082F
:102D900000000010143200083032000860010010FA
:102DA0005432000820000020D000002095050008C3
:102DB000000100201801002098000020901A001047
:102DC000383200081C32000820ED00E00000FFFF50
:102DD0000B4810B5006801214170FFF7CDFEFFF7E9
:102DE000B9FB08490888401C0880FFF7D7FB00F0B2
:102DF000E5F90548FFF77CFCBDE81040FFF734BF5C
:102E000098000020A400002000010020002805D028
:102E1000810702D10178002900D00020704700000E
:102E200030B50D4C0023226808E000BFB2F808C09E
:102E30008C4505D813461268A1EB0C01002AF5D188
:102E400089B20260018112B11589691A11810BB131
:102E5000186030BD206030BD940000202DE9F041A5
:102E6000804616461F460D4611F0FF0F00D14D1C3F
:102E70001648FFF727FB040026D0280AA6626084C4
:102E8000E9B242462046E761FFF74AFC01251048B7
:102E9000104905E000EB850252F8042C22B16D1CAC
:102EA0000A889542F6D9002500EB850040F8044CCD
:102EB0000948E570007818B101212046FFF71AFA99
:102EC0002046FFF7A3FB2846BDE8F0810000001074
:102ED000141B001010320008A60000202DE9F0415C
:102EE000244C234F244B22680026D17808B181421C
:102EF00018D103EB8100567040F8046C1F48916AAA
:102F0000FFF7D2FB20688662397811B10021FFF704
:102F1000F1F91B482168FFF7C7FB00202660FFF787
:102F200075FB1FE01749098888421ED803EB80050E
:102F300055F8044CCCB12046FFF752FE2046FFF76F
:102F40003BFE45F8046C0D48A16AFFF7ADFBA66295
:102F5000387818B100212046FFF7CCF921460848FF
:102F6000FFF7A2FB0020BDE8F081FF20FBE7000097
:102F7000A600002098000020141B00106001001023
:102F8000000000101032000802480068002800D03D
:102F9000C07870479800002010B5002805D0FFF7D2
:102FA0000BFD80B2FFF754FB402010BD70B504004C
:102FB0000D4608D0206830B1B4F9040010F1030FB9
:102FC00001DB032801DD862070BD244E306840B14E
:102FD000204600F085F8A0B100F0BAF800F0C6F87D
:102FE00037E01F4840070CD11E4801681C48FFF716
:102FF000B7FB30B9E16831B11948FFF771FA020047
:1030000002D1852070BD0022B4F90400E168001DE2
:1030100040EA01212068FFF73BFE7068D8B1C07814
:10302000114901EB800050F8040C3060416A0D62D8
:10303000406A0E49416300210D4800F021F80D4916
:10304000086000210C4800F04BF80C490860002093
:103050003060002070BDFF2070BD0000980000208F
:103060003014001034320008141B001075240008BE
:103070004C320008280000203C32000824000020C8
:1030800010B5040005D0216819B1606808B1027854
:103090000AB1002010BD8900103189B2FFF7A6FBEC
:1030A000606810BD3EB504000D464FF0800012D0A0
:1030B000217801290FD12846FFF77EFC82B201A9B1
:1030C0002046FFF71FFC012801D0102003E00DB1BE
:1030D000402000E00020DDE9011203B030BD000017
:1030E00070B504000E462BD0206848B3B4F9040034
:1030F00010F1030F24DB032822DCE16829B1114819
:10310000FFF7EEF9050015D000E00025B4F9040042
:10311000E168001D40EA012133462A462068FFF796
:103120009DFE40B1084901EB8000084950F8040CAD
:10313000426A516370BD1DB129460248FFF7C4FAC7
:10314000002070BD30140010141B001075240008FE
:1031500010B5FFF719FF002804D0034901EB8000E8
:1031600050F8040C10BD0000141B001070B5FFF7E0
:103170004DFE040003D0608C18B1A56A02E08020E7
:1031800070BD0025E078FFF7A9FEFF2806D01DB12D
:103190000348A16AFFF798FA002070BD812070BD36
:1031A0003014001010B5FFF7B7FA20B101690A68B2
:1031B000C168104610BD0020014610BD2DE9F04148
:1031C000114E3468002C18D02089104F401E2081E9
:1031D0004FF001080EE0254624683460002229469D
:1031E0003868FFF79FF86879012808D085F80480CF
:1031F000002C02D020890028EDD0BDE8F08169893B
:103200002846FFF70DFEF3E7940000202800002079
:103210000700000020030201050001003F900200AA
:1032200001000000E8030000000000005C01000055
:10323000D012000060060000100000009924000871
:103240000200000001000000200300000400000054
:10325000301B0010000000009D0500080000000069
:103260000100000020030000983200080000002048
:10327000B00000000C210008983200080000001087
:10328000501B00001C21000848330008B00000203B
:10329000800400001C210008007A030A00000000DE
:1032A00000000000010203040607080900000000F6
:1032B000000000000000000000000000000000000E
:1032C00000000000000000000000000000000000FE
:1032D00000000000010000000200000003000000E8
:1032E00004000000050000000600000007000000C8
:1032F00008000000090000000A00000000000000B3
:103300000B000000000000000000000000000000B2
:1033100000000000000000000000000000000000AD
:10332000010203040102030406070809000000006B
:10333000000000000000000000000000000000008D
:08334000000000000000000085
:040000050800018965
:00000001FF
